:020000040800F2
:10000000005000209D1C0008491A00084B1A0008E7
:100010004D1A00084F1A0008511A0008000000008D
:10002000000000000000000000000000531A00085B
:10003000551A000800000000571A0008591A000855
:10004000E51C0008E51C0008E51C0008E51C00088C
:10005000E51C0008E51C0008611A00086B1A00087E
:10006000751A00087F1A0008E51C0008E51C000846
:10007000E51C0008E51C0008E51C0008E51C00085C
:10008000E51C0008E51C0008E51C0008E51C00084C
:10009000E51C0008E51C0008E51C0008E51C00083C
:1000A000E51C0008E51C0008E51C0008E51C00082C
:1000B000E51C0008E51C0008891A0008E51C00087A
:1000C000E51C0008E51C0008E51C0008E51C00080C
:1000D000E51C0008E51C0008E51C0008E51C0008FC
:1000E000E51C0008E51C0008E51C000800000000F5
:1000F0000000000000000000000000000000000000
:0C01000000000000000000005FF808F1A3
:1001100010B5054C237833B9044B13B10448AFF341
:1001200000800123237010BDB809002000000000EA
:10013000F892000808B5034B1BB103490348AFF31D
:10014000008008BD00000000BC090020F8920008F3
:1001500081F0004102E000BF83F0004330B54FEA78
:1001600041044FEA430594EA050F08BF90EA020FE5
:100170001FBF54EA000C55EA020C7FEA645C7FEA78
:10018000655C00F0E2804FEA5454D4EB5555B8BF9B
:100190006D420CDD2C4480EA020281EA030382EA0C
:1001A000000083EA010180EA020281EA0303362D9E
:1001B00088BF30BD11F0004F4FEA01314FF4801C71
:1001C0004CEA113102D0404261EB410113F0004F83
:1001D0004FEA03334CEA133302D0524263EB43033A
:1001E00094EA050F00F0A780A4F10104D5F1200ED8
:1001F0000DDB02FA0EFC22FA05F2801841F1000133
:1002000003FA0EF2801843FA05F359410EE0A5F106
:1002100020050EF1200E012A03FA0EFC28BF4CF037
:10022000020C43FA05F3C01851EBE37101F00045ED
:1002300007D54FF0000EDCF1000C7EEB00006EEBFA
:100240000101B1F5801F1BD3B1F5001F0CD3490884
:100250005FEA30004FEA3C0C04F101044FEA4452DB
:1002600012F5800F80F09A80BCF1004F08BF5FEA62
:10027000500C50F1000041EB045141EA050130BD42
:100280005FEA4C0C404141EB0101013C28BFB1F554
:10029000801FE9D291F0000F04BF01460020B1FA9F
:1002A00081F308BF2033A3F10B03B3F120020CDA72
:1002B0000C3208DD02F1140CC2F10C0201FA0CF050
:1002C00021FA02F10CE002F11402D8BFC2F1200CB5
:1002D00001FA02F120FA0CFCDCBF41EA0C0190406B
:1002E000E41AA2BF01EB0451294330BD6FEA0404B4
:1002F0001F3C1CDA0C340EDC04F11404C4F120029F
:1003000020FA04F001FA02F340EA030021FA04F3B0
:1003100045EA030130BDC4F10C04C4F1200220FA07
:1003200002F001FA04F340EA0300294630BD21FA45
:1003300004F0294630BD94F0000F83F4801306BF0B
:1003400081F480110134013D4EE77FEA645C18BFFF
:100350007FEA655C29D094EA050F08BF90EA020F96
:1003600005D054EA000C04BF1946104630BD91EA8E
:10037000030F1EBF0021002030BD5FEA545C05D191
:100380004000494128BF41F0004130BD14F58004D0
:100390003CBF01F5801130BD01F0004545F0FE4144
:1003A00041F470014FF0000030BD7FEA645C1ABF79
:1003B000194610467FEA655C1CBF0B46024650EAB0
:1003C000013406BF52EA033591EA030F41F40021DC
:1003D00030BD00BF90F0000F04BF0021704730B562
:1003E0004FF4806404F132044FF000054FF0000137
:1003F00050E700BF90F0000F04BF0021704730B5F8
:100400004FF4806404F1320410F0004548BF4042CC
:100410004FF000013EE700BF42004FEAE2014FEA21
:1004200031014FEA02701FBF12F07F4393F07F4FFC
:1004300081F06051704732F07F4208BF704793F0FF
:100440007F4F04BF41F40021704730B54FF4607412
:1004500001F0004521F000411CE700BF50EA010215
:1004600008BF704730B54FF000050AE050EA0102BE
:1004700008BF704730B511F0004502D5404261EB2E
:1004800041014FF4806404F132045FEA915C3FF46F
:10049000D8AE4FF003025FEADC0C18BF03325FEA0C
:1004A000DC0C18BF033202EBDC02C2F1200300FABD
:1004B00003FC20FA02F001FA03FE40EA0E0021FAE2
:1004C00002F11444BDE600BF4FEA410212F50012EA
:1004D00015D211D56FF47873B3EB625212D94FEA8B
:1004E000C12343F0004343EA505311F0004F23FA75
:1004F00002F018BF404270474FF00000704750EACA
:10050000013005D111F0004008BF6FF00040704786
:100510004FF00000704700BF844641EA000313F02B
:10052000030349D1403A23D30B6803604B6843600F
:100530008B688360CB68C3600B6903614B6943615F
:100540008B698361CB69C3610B6A03624B6A436247
:100550008B6A8362CB6AC3620B6B03634B6B43632F
:100560008B6B8363CB6BC36340304031403ADBD24B
:1005700030320BD30B6803604B6843608B68836039
:10058000CB68C36010301031103AF3D20C3205D36F
:1005900051F8043B40F8043B043AF9D2043208D045
:1005A000D2071CBF11F8013B00F8013B01D30B88B7
:1005B00003806046704700BF082A13D38B07B1D071
:1005C00010F00303AED0C3F10403D21ADB071CBF43
:1005D00011F8013B00F8013BA4D331F8023B20F8AD
:1005E000023B9FE7043AD9D3013A11F8013B00F8E6
:1005F000013BF9D20B7803704B7843708B78837092
:100600006046704770B54FF0FF0C4CF4E06C1CEA8C
:1006100011541DBF1CEA135594EA0C0F95EA0C0FF8
:1006200000F0DEF82C4481EA030621EA4C5123EA6B
:100630004C5350EA013518BF52EA033541F480119A
:1006400043F4801338D0A0FB02CE4FF00005E1FB4D
:1006500002E506F00042E0FB03E54FF00006E1FB97
:1006600003569CF0000F18BF4EF0010EA4F1FF04DA
:10067000B6F5007F64F5407404D25FEA4E0E6D411A
:1006800046EB060642EAC62141EA55514FEAC5202B
:1006900040EA5E504FEACE2EB4F1FD0C88BFBCF5A7
:1006A000E06F1ED8BEF1004F08BF5FEA500E50F158
:1006B000000041EB045170BD06F0004646EA01011E
:1006C00040EA020081EA0301B4EB5C04C2BFD4EB50
:1006D0000C0541EA045170BD41F480114FF0000E49
:1006E000013C00F3AB8014F1360FDEBF002001F0B7
:1006F000004170BDC4F10004203C35DA0C341BDC31
:1007000004F11404C4F1200500FA05F320FA04F002
:1007100001FA05F240EA020001F0004221F0004136
:1007200010EBD37021FA04F642EB06015EEA430EA9
:1007300008BF20EAD37070BDC4F10C04C4F12005D9
:1007400000FA04F320FA05F001FA04F240EA02008C
:1007500001F0004110EBD37041F100015EEA430E5D
:1007600008BF20EAD37070BDC4F1200500FA05F27D
:100770004EEA020E20FA04F301FA05F243EA0203FC
:1007800021FA04F001F0004121FA04F220EA02000B
:1007900000EBD3705EEA430E08BF20EAD37070BD51
:1007A00094F0000F0FD101F00046400041EB010131
:1007B00011F4801F08BF013CF7D041EA060195F013
:1007C000000F18BF704703F00046520043EB0303CD
:1007D00013F4801F08BF013DF7D043EA06037047BA
:1007E00094EA0C0F0CEA135518BF95EA0C0F0CD0C5
:1007F00050EA410618BF52EA4306D1D181EA03010B
:1008000001F000414FF0000070BD50EA410606BF04
:100810001046194652EA430619D094EA0C0F02D149
:1008200050EA013613D195EA0C0F05D152EA03368E
:100830001CBF104619460AD181EA030101F00041AC
:1008400041F0FE4141F470014FF0000070BD41F0F5
:10085000FE4141F4780170BD70B54FF0FF0C4CF4CF
:10086000E06C1CEA11541DBF1CEA135594EA0C0FEE
:1008700095EA0C0F00F0A7F8A4EB050481EA030E3B
:1008800052EA03354FEA013100F088804FEA033322
:100890004FF0805545EA131343EA12634FEA0222F0
:1008A00045EA111545EA10654FEA00260EF00041B1
:1008B0009D4208BF964244F1FD0404F5407402D203
:1008C0005B084FEA3202B61A65EB03055B084FEA94
:1008D00032024FF480104FF4002CB6EB020E75EB91
:1008E000030E22BFB61A754640EA0C005B084FEAB9
:1008F0003202B6EB020E75EB030E22BFB61A754636
:1009000040EA5C005B084FEA3202B6EB020E75EB80
:10091000030E22BFB61A754640EA9C005B084FEAF8
:100920003202B6EB020E75EB030E22BFB61A754605
:1009300040EADC0055EA060E18D04FEA051545EAF4
:1009400016754FEA06164FEAC30343EA52734FEA9D
:10095000C2025FEA1C1CC0D111F4801F0BD141EA16
:1009600000014FF000004FF0004CB6E711F4801F7B
:1009700004BF01430020B4F1FD0C88BFBCF5E06F5B
:100980003FF6AFAEB5EB030C04BFB6EB020C5FEA6B
:10099000500C50F1000041EB045170BD0EF0004EC0
:1009A0004EEA113114EB5C04C2BFD4EB0C0541EAF2
:1009B000045170BD41F480114FF0000E013C90E6EF
:1009C00045EA060E8DE60CEA135594EA0C0F08BFB3
:1009D00095EA0C0F3FF43BAF94EA0C0F0AD150EAB2
:1009E00001347FF434AF95EA0C0F7FF425AF104645
:1009F00019462CE795EA0C0F06D152EA03353FF46D
:100A0000FDAE1046194622E750EA410618BF52EAE9
:100A100043067FF4C5AE50EA41047FF40DAF52EABD
:100A200043057FF4EBAE12E74FF0FF3C06E000BF5A
:100A30004FF0010C02E000BF4FF0010C4DF804CD67
:100A40004FEA410C7FEA6C5C4FEA430C18BF7FEA27
:100A50006C5C1BD001B050EA410C0CBF52EA430C55
:100A600091EA030F02BF90EA020F0020704710F1D5
:100A7000000F91EA030F58BF994208BF90422CBF64
:100A8000D8176FEAE37040F0010070474FEA410C5D
:100A90007FEA6C5C02D150EA013C07D14FEA430C7B
:100AA0007FEA6C5CD6D152EA033CD3D05DF8040BEC
:100AB000704700BF8446104662468C46194663461E
:100AC00000E000BF01B5FFF7B7FF002848BF10F1F5
:100AD000000F01BD4DF808EDFFF7F4FF0CBF01203A
:100AE00000205DF808FB00BF4DF808EDFFF7EAFFB6
:100AF00034BF012000205DF808FB00BF4DF808ED71
:100B0000FFF7E0FF94BF012000205DF808FB00BF65
:100B10004DF808EDFFF7CEFF94BF012000205DF8EF
:100B200008FB00BF4DF808EDFFF7C4FF34BF0120FC
:100B300000205DF808FB00BF4FEA410C7FEA6C5CC7
:100B400002D150EA013C0AD14FEA430C7FEA6C5CC7
:100B500002D152EA033C02D14FF0000070474FF03F
:100B60000100704753B94AB9002908BF00281CBFCB
:100B70004FF0FF314FF0FF3000F076B9ADF1080CC7
:100B80006DE904CE00F006F8DDF804E0DDE90223AB
:100B900004B070472DE9F047089E0D46044688468C
:100BA000002B4DD18A42944668D9B2FA82F252B1F2
:100BB00001FA02F3C2F1200120FA01F10CFA02FC61
:100BC00041EA030894404FEA1C41B8FBF1F71FFAD1
:100BD0008CFE01FB178807FB0EF0230C43EA084349
:100BE00098420AD91CEB030307F1FF3580F01E8100
:100BF000984240F21B81023F63441B1AB3FBF1F0A1
:100C000001FB103300FB0EFEA4B244EA0344A645E8
:100C10000AD91CEB040400F1FF3380F00981A645DA
:100C200040F20681644402380021A4EB0E0440EA3D
:100C300007401EB10023D440C6E90043BDE8F08759
:100C40008B4208D9002E00F0EE800021C6E9000595
:100C50000846BDE8F087B3FA83F100294AD1AB42D8
:100C600002D3824200F2FC80841A65EB0303012068
:100C70009846002EE2D0C6E90048DFE702B9FFDE61
:100C8000B2FA82F2002A40F09180A1EB0C0001211F
:100C90004FEA1C471FFA8CFEB0FBF7F307FB13006B
:100CA000250C45EA00450EFB03F0A84208D91CEBD1
:100CB000050503F1FF3802D2A84200F2CE80434678
:100CC0002D1AB5FBF7F007FB10550EFB00FEA4B282
:100CD00044EA0544A64508D91CEB040400F1FF359D
:100CE00002D2A64500F2B6802846A4EB0E0440EAE4
:100CF00003409EE7C1F120078B4022FA07FC4CEA33
:100D0000030C25FA07FA4FEA1C49BAFBF9F820FA56
:100D100007F309FB18AA8D401FFA8CFE1D4300FA49
:100D200001F308FB0EF02C0C44EA0A44A04202FA3C
:100D300001F20BD91CEB040408F1FF3A80F0888023
:100D4000A04240F28580A8F102086444241AB4FB52
:100D5000F9F009FB104400FB0EFEADB245EA044475
:100D6000A64508D91CEB040400F1FF356CD2A6455A
:100D70006AD90238644440EA0840A0FB0295A4EB1B
:100D80000E04AC42C846AE4656D353D0002E69D0AE
:100D9000B3EB080264EB0E0422FA01F304FA07F73E
:100DA0001F43CC40C6E90074002147E70CFA02FC5F
:100DB000C2F1200125FA01F34FEA1C4720FA01F1A4
:100DC00095400D43B3FBF7F107FB11331FFA8CFE7F
:100DD000280C40EA034001FB0EF3834204FA02F4BC
:100DE00008D91CEB000001F1FF382FD283422DD926
:100DF00002396044C01AB0FBF7F307FB1300ADB231
:100E000045EA004503FB0EF0A84208D91CEB050596
:100E100003F1FF3816D2A84214D9023B6544281AC0
:100E200043EA014138E73146304607E72F46E4E61A
:100E30001846F9E64B45A9D2B9EB020865EB0C0E52
:100E40000138A3E74346EAE7284694E74146D1E75D
:100E5000D0467BE76444023847E7023B65442FE70E
:100E6000084606E73146E9E6704700BF10B588B08E
:100E700000240494059406940794244B9A6942F044
:100E800020029A619A6902F020020192019A9A69FD
:100E900042F004029A619A6902F004020292029AF4
:100EA0009A6942F008029A619B6903F00803039370
:100EB000039B0F230493164B05930123069304A968
:100EC000144800F0DBFF22460221062000F07CFFE0
:100ED000062000F0B1FF22460221072000F074FF37
:100EE000072000F0A9FF22460221082000F06CFF35
:100EF000082000F0A1FF22460221092000F064FF33
:100F0000092000F099FF08B010BD00BF001002409A
:100F1000000021100008014008B50B480B4B03608E
:100F20000B4B436000238360C3604FF48042026137
:100F300043618361C361036201F052FA00B908BDE5
:100F400000F05AF8FBE700BFD40900200058004029
:100F5000801A060010B586B0002302930393049311
:100F600005930268114B9A4201D006B010BD104C97
:100F7000A36943F00803A361A36903F00803009386
:100F8000009B4FF4406302931223039303230593C2
:100F900002A9084800F072FFE36943F48003E361AB
:100FA000E36903F480030193019BDEE700580040EE
:100FB00000100240000C014008B50138072808D88D
:100FC000DFE800F01008070C07070704642000F0B2
:100FD000B9FC08BD652000F0B5FCFAE7662000F01A
:100FE000B1FCF6E7672000F0ADFCF2E708B500F0D1
:100FF00029FC00F0B1FC08BD72B6FEE700B591B067
:101000002822002106A802F073F90023019302931D
:10101000039304930593012206924FF480330793C0
:101020000A9202220D920E934FF4E0130F9306A83A
:1010300001F086FB80B90F23019302210291002366
:1010400003934FF480620492059301A801F0AAFD76
:1010500020B911B05DF804FBFFF7CEFFFFF7CCFF1E
:1010600008B500F067FEFFF7C9FFFFF7FFFEFFF7C7
:1010700053FF00F0ABFD00F06FFD074801F0BAFE32
:10108000064801F089FE142000F078FE00F042FBD3
:1010900000F0B6FBFEE700BF8813002040130020DD
:1010A00000B583B002460B464FF0FF310091782126
:1010B000024801F073FA03B05DF804FBD409002084
:1010C00008B5034B587002211846FFF7E9FF08BD29
:1010D000AC0E002008B54FF480620021014802F0F8
:1010E00007F908BD280A002038B5104B40221A70B5
:1010F000002418E0A4F15000C0B2FFF7E1FF002087
:10110000FFF7DEFF1020FFF7DBFF084D80220849C4
:1011100001EBC411681CFFF7FFF981212846FFF796
:10112000BFFF0134E4B2072CE4D938BD280E0020FB
:10113000280A002008B5AE20FFF7C2FF2020FFF7E5
:10114000BFFF1020FFF7BCFFB020FFF7B9FFC8209A
:10115000FFF7B6FF0020FFF7B3FF1020FFF7B0FF47
:101160004020FFF7ADFF8120FFF7AAFFDF20FFF748
:10117000A7FFA120FFF7A4FFA620FFF7A1FFA8204B
:10118000FFF79EFF3F20FFF79BFFA420FFF798FF8C
:10119000D320FFF795FF0020FFF792FFD520FFF740
:1011A0008FFFF020FFF78CFFD920FFF789FF222067
:1011B000FFF786FFDA20FFF783FF1220FFF780FF9B
:1011C000DB20FFF77DFF2020FFF77AFF8D20FFF760
:1011D00077FF1420FFF774FFFFF77CFFFFF784FF12
:1011E000AF20FFF76DFF08BD10F0800F1CD13F2925
:1011F0001AD862B94FEAD10C01F0070101228A40E6
:101200000A4B03EBCC13195C1143195470474FEA96
:10121000D10C01F0070101228A40044B03EBCC13EF
:10122000195C21EA02011954704700BF280A002006
:1012300030B59DF8104007282AD811F0800F27D12B
:101240000CB1D243D2B29DF80CE00EF1010EFF2496
:1012500004FA0EFE4FFA8EFE4FFA82FC4EEA0C02A2
:10126000C3F1080344FA03F35CB242EA0403DBB2BD
:10127000084D2B70084A02EBC010425C13404354E7
:101280002CEA0E0222EA0402D2B22A70134343541B
:1012900030BD00BFAF0E0020280A00202DE9F0432A
:1012A00083B0064690461C469DF82890CF0801F072
:1012B00007052B44082B1EDDAA40CDF80490072318
:1012C00000932B46D2B201463846FFF7B1FFC5F175
:1012D000080248FA02F22C44E4B2CDF80490093C2A
:1012E000E4B200940023D2B23146781CFFF7A0FF8D
:1012F00003B0BDE8F083AA402C44E4B2CDF80490DA
:10130000013CE4B200942B46D2B201463846FFF7C6
:101310008FFFEDE72DE9F04182B00646154698466D
:10132000CF0801F00704A24001930723009323464E
:10133000D2B201463846FFF77BFF14B902B0BDE8D0
:10134000F081C4F1080245FA02F2CDF80480013CB4
:10135000E4B200940023D2B23146781CFFF768FF54
:10136000ECE72DE9F04F85B08046894692461E464F
:101370009DF8383003939DF83CB0DF0803F0070375
:101380000293002512E006FB045209EBC40105EBB1
:1013900008005B461AF80220C9B2C0B2FFF7BAFFD4
:1013A0000134E4B2BC42EED30135EDB2B54201D214
:1013B0000024F7E7029BBBB106FB07F70024039D5F
:1013C00010E03A1925F00701494404EB0800CDF874
:1013D00000B0029B1AF80220C9B2C0B2FFF75EFF4C
:1013E0000134E4B2B442ECD305B0BDE8F08F0000A4
:1013F0002DE9F04F85B005460C461E469DF8387025
:10140000904231D09046994241D0A2EB00090FFAA8
:1014100089F9A3EB010AB9F1000F49DD012301931A
:10142000BAF1000F48DD012302932DB224B2B9F1C5
:10143000000FB8BFC9F100091FFA89F303930FFA2F
:1014400089F9BAF1000FB8BFCAF1000A1FFA8AFB86
:101450000FFA8AFAD14549DC4FF000089946CDF8D9
:101460000CB0DDF808B047E099420BD92E4B19704B
:1014700034460E4606E03A4621462846FFF7B4FEBB
:101480000134E4B2A642F6D205B0BDE8F08F904236
:101490000BD9254B18701546804606E03A46214682
:1014A0002846FFF7A1FE0135EDB2A845F6D2EBE7DD
:1014B0004FF0FF330193B3E74FF0FF330293B4E7EC
:1014C00055442DB24545DFD03A46E1B2E8B2FFF7C8
:1014D0008BFE5E44B3B236B2B9EB460FF0DC029A33
:1014E000144424B2039A9B1A1EB2E9E70026DDF8E1
:1014F00004A0E7E75C4424B2B442C5D03A46E1B266
:10150000E8B2FFF771FEC8441FFA88F30FFA88F8B3
:10151000BAEB480FEEDC019A15442DB2039A9B1AE0
:101520000FFA83F8E6E700BFAE0E00202DE9F04188
:1015300082B007460E461C469DF820800244D5B274
:10154000CDF800800B462A46FFF752FF3444E4B240
:10155000CDF8008023462A4621463846FFF748FF4B
:10156000CDF8008023463A4631463846FFF740FF23
:10157000CDF8008023462A4631462846FFF738FF3B
:1015800002B0BDE8F0812DE9F04383B005468846FE
:1015900017461E469DF8289000240CE004EB080135
:1015A000C9B2EA19CDF800900B46D2B22846FFF72F
:1015B0001FFF0134E4B2B442F0D303B0BDE8F083BE
:1015C00070B582B05D68203A1C7804F1070C4FEAD0
:1015D000EC0C5B7803FB0CFC9DF818600196009402
:1015E0000CFB0252FFF7BDFE02B070BD037890F90C
:1015F0000020002A0DDA03F0E002C02A0BD003F02D
:10160000F002E02A09D003F0F803F02B07D0002005
:101610007047012070470220704703207047042064
:1016200070472DE9F04F87B00390049193461E4612
:101630009DF84030059333780733DB1096F801901E
:1016400003FB09F95FFA89F909F104095FFA89F9DD
:101650004FF0000A15E0059B0193337800937378EF
:101660002A1D0499039C2046FFF77BFE73782344D0
:10167000DBB20393C2441FFA8AFA012300E000237D
:10168000E3B10BEB0A071BF80A30002B3ED03846BB
:10169000FFF7ACFF8046002838D00024337AA342FD
:1016A000EDD9756809FB045542462946384601F0D4
:1016B000EBFD0028CFD00134E4B2EFE7B8F1010F21
:1016C00011D0059B0093F36820220499039C2046C7
:1016D000FFF776FFF3685B782344DBB20393C244E1
:1016E0001FFA8AFACDE7059B0093F3681BF80A20DE
:1016F0000499039C2046FFF763FFF3685B7823445B
:10170000DBB20393C2441FFA8AFABAE707B0BDE816
:10171000F08F000000B583B0FFF70CFDFFF7DAFC97
:1017200000221CE002EB4201880014490144012020
:10173000C8540133DBB20B2B0FD8002AF2D01F2A7A
:10174000F0D0002BEED00B2BECD002EB4201880046
:101750000A4901440020C854EBE70132D2B21F2AE3
:1017600001D80023E7E700200090054B054A014619
:10177000FFF757FF03B05DF804FB00BFB40E002075
:1017800008990008EC9A000810B5194B1B68586AB4
:1017900001F000FE01F006FE164B83FB00231A1831
:1017A000C317C3EB2213C3EB0313A0EB4303DCB259
:1017B0000134E4B201F0F6FD0F4A82FB0032C31798
:1017C000C3EBA20303EB8303A0EB4303DBB20133C0
:1017D000DBB204EB4401094A02EB8102D25C002A2D
:1017E000D8D1064A02EB81040322E25410BD00BFA7
:1017F000401300208988888867666666B40E0020DA
:1018000008B50E4B03221A7065225A70002210E0B0
:10181000D31CDBB2094901EB42018B700320C87075
:1018200003EB43039900064B0B440221D9700132AC
:10183000D2B2022AECD9FFF7A7FF08BD381000206A
:10184000B40E002030B583B0394B5A88ADF804206F
:101850005B78643B032B08D8DFE803F0022F353BAD
:101860009DF80530013B8DF805309DF804409DF84A
:10187000055004EB44039A002E4B13445A5D531E4B
:10188000DBB2012B51D9032A29D0294B1A78013A0E
:1018900003EB42035B88ADF800309DF800309DF803
:1018A000011003EB43039A00224B134400225A54C5
:1018B0001F4B1B78013BDBB227E09DF8053001335D
:1018C0008DF80530D1E79DF80430013B8DF80430E8
:1018D000CBE79DF8043001338DF80430C5E7144B95
:1018E0001A780132D2B21A70033A1349134801F040
:1018F00075FDFFF749FFDBE7591E0D4A02EB430375
:1019000002EB410252885A80CBB2002BF4D1084B33
:10191000BDF804205A8004EB4404A200054B134494
:1019200002225A55064B00221A7003B030BD00BF88
:1019300038100020B40E0020F89A0008341000205F
:10194000B00E0020024B5870024B01221A707047F3
:1019500038100020B00E002030B583B000253BE0E9
:10196000211D8900A800002300930423032201F015
:10197000FC0100F0FC00FFF706FE0134E4B20B2C82
:1019800028D805EB45039A001B4B13441B5D012B24
:10199000E6D0032BE4D07BB1022BEED1211D8900D0
:1019A000A8000023009303231A4601F0FC0100F075
:1019B000FC00FFF7BBFDE0E7211D8900A800012323
:1019C00000930423032201F0FC0100F0FC00FFF768
:1019D000DAFDD2E70135EDB21F2D01D80024CEE7A4
:1019E00000210091054B064A2F20FFF71AFEFFF752
:1019F0007BFB03B030BD00BFB40E00200899000887
:101A00003410002082B00E4B9A6942F001029A61B4
:101A10009A6902F001020092009ADA6942F080525B
:101A2000DA61DB6903F080530193019B054A536837
:101A300023F0E06343F00073536002B0704700BFCF
:101A40000010024000000140FEE7FEE7FEE7FEE76F
:101A5000FEE770477047704708B500F07DF908BD94
:101A600008B5012000F01CFB08BD08B5022000F0FD
:101A700017FB08BD08B5042000F012FB08BD08B52F
:101A8000082000F00DFB08BD08B5024801F0EAF996
:101A900008BD00BF881300200120704708B501F081
:101AA000C9FB162303604FF0FF3008BD08B54FF0A7
:101AB000FF31FFF7F3FFFEE770B50C461646002531
:101AC00006E0AFF30080214601F8010B01350C461A
:101AD000B542F6DB304670BD70B50C4616460025A3
:101AE00004E014F8010BAFF300800135B542F8DBD8
:101AF000304670BD4FF0FF3070474FF400534B60DD
:101B000000207047012070470020704710B5034641
:101B10000C4A0D490D48006840B10C480068034468
:101B2000521A934206D8094A136010BD0748084C60
:101B30000460F2E701F07EFB0C2303604FF0FF30FE
:101B4000F3E700BF00500020000400003C13002019
:101B5000201400207047000000B587B000230293D6
:101B6000039304930593009301931648164A026069
:101B700040F2CF22426083604FF6FF72C260036181
:101B80008023836101F066FA90B94FF48053029389
:101B900002A90C4801F096FA68B90023009301935A
:101BA0006946084801F00EFB40B907B05DF804FB38
:101BB000FFF722FAE9E7FFF71FFAEEE7FFF71CFA53
:101BC000F3E700BF401300200004004000B587B0D9
:101BD0000023029303930493059300930193154804
:101BE000154A026041F61F424260836040F6C3120C
:101BF000C2600361836101F02DFA90B94FF4805304
:101C0000029302A90B4801F05DFA68B90023009322
:101C100001936946074801F0D5FA40B907B05DF86D
:101C200004FBFFF7E9F9E9E7FFF7E6F9EEE7FFF76D
:101C3000E3F9F3E7881300200008004000B583B003
:101C40000368134A934205D0124A93420DD003B061
:101C50005DF804FB104BDA6942F00202DA61DB69DD
:101C600003F002030093009BF1E70B4BDA6942F0AB
:101C70000402DA61DB6903F004030193019B002293
:101C800001211E2000F0A0F81E2000F0D5F8DEE7AC
:101C9000000400400008004000100240FFF75AFF17
:101CA0000B480C490C4A002302E0D458C4500433BA
:101CB000C4188C42F9D3094A094C002301E013608F
:101CC0000432A242FBD301F0BBFAFFF7C9F9704717
:101CD00000000020B80900203C9F0008B80900203F
:101CE0001C140020FEE7000010B504460E4B1878C7
:101CF0004FF47A73B3FBF0F30C4A1068B0FBF3F0C7
:101D000000F0A8F868B90F2C01D901200AE00022E0
:101D100021464FF0FF3000F057F8054B1C600020C3
:101D200000E0012010BD00BF0400002000000020E2
:101D30000800002008B5074A136843F01003136039
:101D4000032000F02FF80020FFF7CEFFFFF75AFE28
:101D5000002008BD00200240034A1168034B1B7895
:101D60000B441360704700BFD01300200400002014
:101D7000014B1868704700BFD013002038B50446E7
:101D8000FFF7F6FF0546B4F1FF3F02D0044B1B7886
:101D90001C44FFF7EDFF401BA042FAD338BD00BF43
:101DA00004000020074AD36823F4E0631B041B0CE3
:101DB000000200F4E060034343F0BF6343F40033E8
:101DC000D360704700ED00E000B5194BDB68C3F34A
:101DD0000223C3F1070CBCF1040F28BF4FF0040C21
:101DE00003F1040EBEF1060F18D9033B4FF0FF3E7E
:101DF0000EFA0CFC21EA0C0199400EFA03F322EAD8
:101E00000303194300280BDB0901C9B200F160404C
:101E100000F5614080F800135DF804FB0023E5E75E
:101E200000F00F000901C9B2024B1954F4E700BFDA
:101E300000ED00E014ED00E0002807DB00F01F02D9
:101E4000400901239340024A42F82030704700BF06
:101E500000E100E00138B0F1807F0BD24FF0E023C9
:101E60005861054AF02182F823100020986107226A
:101E70001A6170470120704700ED00E070B582B034
:101E80000024A446A6E0804DAA4210D007D97F4D79
:101E9000AA420CD005F58035AA4208D013E0A5F57A
:101EA0008015AA4203D005F57025AA4207D18A6899
:101EB000002A58D0012A51D04361082403E0A5F537
:101EC0008015AA42F3D0BEF1FF0F4ED80646BEF1F0
:101ED000FF0F4CD84FEA8C0233680F25954023EA58
:101EE000050304FA02F2134333604B6813F0805F7A
:101EF0006ED0674B9A6942F001029A619B6903F0C8
:101F000001030193019B4FEA9C02951C614B53F81E
:101F100025600CF003039D000F23AB4026EA030667
:101F20005D4B984229D003F58063984200F08E8083
:101F300003F58063984200F08B8003F5806398423C
:101F400019D004231AE0CC68BDE7CC680434BAE7A2
:101F5000CC680834B7E7CC680C34B4E703610824D4
:101F6000B1E70024AFE70424ADE7061DAFE7ACF10D
:101F700008029200B0E7032300E00023AB403343A4
:101F80000232444D45F822304B6813F4801F61D073
:101F9000424A936843EA0E0393604B6813F4001FB0
:101FA0005ED03E4AD36843EA0E03D3604B6813F415
:101FB000003F5BD0394A536843EA0E0353604B68D5
:101FC00013F4803F58D0354A136843EA0E03136078
:101FD0000CF1010C0A6832FA0CF353D0012303FA16
:101FE0000CF302EA030E33EA0202F1D14A68122A24
:101FF0003FF649AF122A3FF666AF01A555F822F029
:10200000AF1E0008471F0008511F0008631F00088B
:10201000C71E0008C71E0008C71E0008C71E00080C
:10202000C71E0008C71E0008C71E0008C71E0008FC
:10203000C71E0008C71E0008C71E0008C71E0008EC
:10204000C71E00084B1F0008571F0008012395E713
:10205000022393E7114A936823EA0E0393609CE7F7
:102060000E4AD36823EA0E03D3609FE70B4A5368F6
:1020700023EA0E035360A2E7084A136823EA0E031B
:102080001360A5E702B070BD0000221000003110FF
:10209000001002400000014000080140000401401F
:1020A00008B5054B5B69034200D108BD024B58617E
:1020B000FEF782FFF9E700BF0004014003685A6998
:1020C00012F4806F01D1002070476FF480625A6172
:1020D00000230363202280F83D2080F83E30026C0C
:1020E00042F00402026480F83C30012070472DE980
:1020F000F04106460C46174698463BE0FFF738FE8F
:10210000069BC01A404502D8B8F1000F32D1012D0C
:1021100018D033689B6924EA03039BB2B3FA83F3B4
:102120005B099F4226D100233363202286F83D209D
:1021300086F83E30326C42F02002326486F83C3041
:10214000012027E033685B6924EA03039BB2B3FAFA
:1021500083F35B09E5E733685B6924EA030C1FFA44
:102160008CFCBCFA8CFC4FEA5C1C674511D1B8F1C1
:10217000FF3FC3D1C4F30745012DECD033689B6901
:1021800024EA030C1FFA8CFCBCFA8CFC4FEA5C1CA2
:10219000EBE70020BDE8F0812DE9F84305460E4647
:1021A0009046994653E01A6842F400721A602B6810
:1021B0006FF480625A6100232B63202285F83D2052
:1021C00085F83E302A6C42F004022A6485F83C30DF
:1021D00001204AE0FFF7CCFDA0EB0900404502D802
:1021E000B8F1000F33D1012F17D02B689B6926EA75
:1021F00003039BB2003B18BF012343B300232B63AF
:10220000202285F83D2085F83E302A6C42F02002DD
:102210002A6485F83C30012027E02B685B6926EAB8
:1022200003039BB2003B18BF0123E6E72B689C69C0
:1022300026EA0404A4B2003C18BF0124A4B12B6810
:102240005A6912F4806FAED1B8F1FF3FC2D1C6F324
:102250000747012FEAD12B685C6926EA0404A4B27F
:10226000003C18BF0124E9E70020BDE8F883000026
:10227000F0B583B004460D4616461F46C36A082BC8
:102280000DD0012B0BD013F5803F08D0036B122B20
:102290000AD10268136843F48073136004E0226873
:1022A000136843F4807313600097334600224FF0A5
:1022B00001112046FFF71BFF80B92369B3F5804F5A
:1022C00016D1236805F0FE051D613B4632461349D1
:1022D0002046FFF761FFF8B903B0F0BD23681B6823
:1022E00013F4807F02D04FF4007323640320F3E7DC
:1022F000EB11226803F0060343F0F00313613B4641
:10230000324607492046FFF747FF18B92368EDB268
:102310001D61DAE70120DFE70120DDE702000100AF
:102320000800010070B504460D46164623685B6937
:1023300013F0800F21D12046FFF7C0FEF8B9B5F1A8
:10234000FF3FF3D0FFF714FD801BA84201D8002DFA
:10235000ECD123685B6913F0800FE7D1002323637E
:10236000202284F83D2084F83E30226C42F0200286
:10237000226484F83C30012000E0002070BD012080
:10238000FCE770B504460D46164623685B6913F0FA
:10239000040F21D12046FFF791FEF8B9B5F1FF3FB8
:1023A000F3D0FFF7E5FC801BA84201D8002DECD14B
:1023B00023685B6913F0040FE7D100232363202215
:1023C00084F83D2084F83E30226C42F020022264E2
:1023D00084F83C30012000E0002070BD0120FCE7C3
:1023E000002800F0CC8070B5044690F83D30002BFA
:1023F00077D0242384F83D302268136823F001034A
:1024000013602268136843F4004313602268136862
:1024100023F40043136000F081FC62685A4B9A4237
:1024200064D85A4B98428CBF00230123002B40F004
:10243000A8805749A1FB00318B0C25686A6822F0FF
:102440003F0242EA91426A6021680A6A22F03F0232
:1024500066684D4DAE424FD8013313430B6221687D
:10246000CA6922F44F4222F0FF026668464B9E4240
:102470004CD8431E7600B3FBF6F3013340F6FC70F4
:10248000034278D0C3F30B031343CB6121680B687D
:1024900023F0C003E269206A024313430B60216802
:1024A0008B6823F4034323F0FF032269E0680243AF
:1024B00013438B602168CB6823F0FF036269A06936
:1024C00002431343CB602268136843F00103136097
:1024D00000202064202384F83D30206384F83E00EF
:1024E00070BD80F83C30FEF735FD82E7294B9842FD
:1024F0008CBF0023012399E74FF4967505FB03F386
:10250000254DA5FB03539B090133A6E7A368BBB97F
:10251000451E06EB460CB5FBFCF50135C5F30B0576
:10252000B5FA85F56D0945BBC3B9013806EB46031D
:10253000B0FBF3F30133C3F30B0343F40043A3E70E
:10254000451E06EB860C0CEB8C0CB5FBFCF501353F
:10255000C5F30B05B5FA85F56D09E4E7013806EB1F
:10256000860303EB8303B0FBF3F30133C3F30B03E5
:1025700043F4404388E7042386E7012384E70120EE
:1025800070470120ACE700BFA08601007F841E00D9
:1025900083DE1B43FF083D00D34D62102DE9F0435D
:1025A00085B004460F46914698460C9EFFF7E0FB27
:1025B000054694F83D00C0B2202804D002273846D2
:1025C00005B0BDE8F0830095192301224F4920464C
:1025D000FFF78DFD002840F0928094F83C30012BED
:1025E00000F08F80012384F83C3023681A6812F0D1
:1025F000010F03D11A6842F001021A6022681368C1
:1026000023F400631360212384F83D30102384F801
:102610003E3000232364C4F82490A4F82A80638DFC
:1026200023853B4BE3622B46324639462046FFF773
:102630001FFE0746002866D10023039323685A69CA
:1026400003929B690393039B11E0236C042B01D03D
:102650000127B4E72268136843F400731360F7E7B7
:102660002A4631462046FFF78CFE00282ED1238DC6
:10267000002B36D02A4631462046FFF753FE00286D
:10268000E3D1626A236812781A61606A431C63624C
:10269000618D89B2013989B26185238D013B9BB27D
:1026A00023852268516911F0040FD9D0002BD7D0AF
:1026B00043781361636A01336362638D9BB2013BAC
:1026C0009BB26385238D013B2385C9E7236C042BD3
:1026D00001D0012773E72268136843F40073136085
:1026E000F7E72268136843F400731360202384F82B
:1026F0003D30002384F83E3084F83C305FE7022709
:102700005DE702275BE7012759E700BF02001000E1
:102710000000FFFF82B0084B1B68084AA2FB03239E
:102720005B0A00FB03F3019300BF019B5A1E019259
:10273000002BF9D102B0704700000020D34D621089
:10274000002800F0F18170B582B00446036813F0F0
:10275000010F2CD0994B5B6803F00C03042B1DD0A8
:10276000964B5B6803F00C03082B12D06368B3F53B
:10277000803F41D0002B55D103F1804303F5043352
:102780001A6822F480321A601A6822F480221A60D1
:1027900037E08A4B5B6813F4803FE7D0874B1B68B8
:1027A00013F4003F03D06368002B00F0BF8123685F
:1027B00013F0020F75D0814B5B6813F00C0F5FD0E4
:1027C0007E4B5B6803F00C03082B54D02369002B6D
:1027D00000F08A807A4B01221A60FFF7C9FA054699
:1027E000764B1B6813F0020F75D1FFF7C1FA401B3F
:1027F0000228F5D903209EE1704A136843F4803320
:102800001360636843B3FFF7B3FA05466B4B1B686D
:1028100013F4003FCBD1FFF7ABFA401B6428F5D986
:10282000032088E1B3F5A02F09D0644B1A6822F485
:1028300080321A601A6822F480221A60E1E703F1FC
:102840008043A3F53C331A6842F480221A601A6868
:1028500042F480321A60D4E7FFF78AFA0546574BF4
:102860001B6813F4003FA2D0FFF782FA401B6428D4
:10287000F5D903205FE1514B5B6813F4803FA5D18C
:102880004E4B1B6813F0020F03D02369012B40F05D
:102890004F814A4A136823F0F803616943EAC10390
:1028A0001360236813F0080F33D0A369002B5CD0AA
:1028B000434B0122C3F88024FFF75AFA05463F4BE9
:1028C0005B6A13F0020F21D1FFF752FA401B022876
:1028D000F5D903202FE1394A136823F0F803616921
:1028E00043EAC1031360DCE7354B00221A60FFF7AF
:1028F0003FFA0546314B1B6813F0020FD1D0FFF7AA
:1029000037FA401B0228F5D9032014E10120FFF714
:1029100001FF236813F0040F00F09680274BDB695A
:1029200013F0805F34D1254BDA6942F08052DA61CE
:10293000DB6903F080530193019B0125214B1B6848
:1029400013F4807F26D0E368012B3DD0002B53D1B8
:1029500003F1804303F504331A6A22F001021A627C
:102960001A6A22F004021A6233E0154B0022C3F8FF
:102970008024FFF7FDF90546104B5B6A13F0020F48
:10298000C7D0FFF7F5F9401B0228F5D90320D2E0A4
:102990000025D3E70B4A136843F480731360FFF7F5
:1029A000E7F90646074B1B6813F4807FCBD1FFF78E
:1029B000DFF9801B6428F5D90320BCE00010024039
:1029C00000004242007000405F4A136A43F0010376
:1029D0001362E36833B3FFF7CBF906465A4B1B6A21
:1029E00013F0020F2FD1FFF7C3F9801B41F2883398
:1029F0009842F3D903209EE0052B09D0524B1A6A66
:102A000022F001021A621A6A22F004021A62E0E756
:102A10004D4B1A6A42F004021A621A6A42F001022D
:102A20001A62D6E7FFF7A4F90646474B1B6A13F074
:102A3000020F08D0FFF79CF9801B41F288339842BF
:102A4000F3D9032077E0E5B9E369002B72D03E4A61
:102A5000526802F00C02082A56D0022B17D03B4BCA
:102A600000221A66FFF784F90446374B1B6813F0FF
:102A7000007F47D0FFF77CF9001B0228F5D903201F
:102A800059E0314AD36923F08053D361DCE72F4BFF
:102A900000221A66FFF76CF905462B4B1B6813F0F2
:102AA000007F06D0FFF764F9401B0228F5D9032008
:102AB00041E0236AB3F5803F1AD023494B6823F4E1
:102AC0007413226A606A024313434B601F4B012256
:102AD0001A66FFF74DF904461B4B1B6813F0007F85
:102AE0000ED1FFF745F9001B0228F5D9032022E09B
:102AF000154A536823F40033A1680B435360DCE7A5
:102B0000002018E0002016E0012B16D00E4B5B6869
:102B100003F48031226A914211D103F47013626A86
:102B200093420ED1002006E001207047012002E010
:102B3000012000E0002002B070BD0120FBE7012071
:102B4000F9E70120F7E700BF001002400000424211
:102B50000F4B5B6803F00C02082A01D00D48704748
:102B6000C3F383420C49885C13F4803F0BD0084BBD
:102B70005B68C3F34043094AD35C064A02FB00F09A
:102B8000B0FBF3F07047064B03FB00F0704700BF4B
:102B90000010024000127A00149B0008249B0008D9
:102BA00000093D00002800F0A08070B50D460446E5
:102BB000524B1B6803F007038B420BD24F4A13683A
:102BC00023F007030B431360136803F007038B42E2
:102BD00040F08D80236813F0020F17D013F0040F1C
:102BE00004D0474A536843F4E0635360236813F00A
:102BF000080F04D0424A536843F460535360404A7C
:102C0000536823F0F003A1680B435360236813F06B
:102C1000010F31D06368012B20D0022B25D0384A18
:102C2000126812F0020F64D035494A6822F003029C
:102C300013434B60FFF79CF80646314B5B6803F08B
:102C40000C036268B3EB820F16D0FFF791F8801B7C
:102C500041F288339842F0D9032045E0284A1268AF
:102C600012F4003FE0D101203EE0254A126812F044
:102C7000007FD9D1012037E0204B1B6803F0070308
:102C8000AB420AD91D4A136823F007032B43136094
:102C9000136803F00703AB422DD1236813F0040F30
:102CA00006D0174A536823F4E063E1680B4353608E
:102CB000236813F0080F07D0114A536823F46053B8
:102CC000216943EAC1035360FFF742FF0C4B5B6885
:102CD000C3F303130B4AD35CD8400B4B18600B4B68
:102CE0001868FFF701F8002070BD0120704701202F
:102CF000FAE70120F8E70120F6E700BF00200240D4
:102D000000100240FC9A000800000020080000208B
:102D1000014B1868704700BF0000002008B5FFF79E
:102D2000F7FF044B5B68C3F30223034AD35CD8402C
:102D300008BD00BF001002400C9B000810B4036ADD
:102D4000046A24F001040462846924F0F00C4CEA63
:102D5000021223F00A030B438261036210BC704726
:102D600010B4036A046A24F010040462846924F431
:102D7000704C4CEA023223F0A00343EA0113826153
:102D8000036210BC7047836823F070030B4343F069
:102D9000070383607047000090F83D30DBB2012BE1
:102DA00022D1022380F83D300368114A934210D0AB
:102DB000B3F1804F0DD0A2F59432934209D002F5C1
:102DC0008062934205D01A6842F001021A60002026
:102DD00070479A6802F00702062A07D01A6842F084
:102DE00001021A60002070470120704700207047E0
:102DF000002C014090F83D30DBB2012B27D102239B
:102E000080F83D300268D36843F00103D360036863
:102E1000114A934210D0B3F1804F0DD0A2F59432F5
:102E2000934209D002F58062934205D01A6842F0BD
:102E300001021A60002070479A6802F00702062A11
:102E400007D01A6842F001021A6000207047012082
:102E500070470020704700BF002C0140704770474A
:102E60007047704710B5044603681A6912F0020FE4
:102E700011D0DA6812F0020F0DD06FF002021A6161
:102E80000123037703689B6913F0030F70D0FFF7EA
:102E9000E6FF0023237723681A6912F0040F12D08B
:102EA000DA6812F0040F0ED06FF004021A610223E8
:102EB000237723689B6913F4407F5FD02046FFF798
:102EC000CEFF0023237723681A6912F0080F12D06F
:102ED000DA6812F0080F0ED06FF008021A610423AE
:102EE00023772368DB6913F0030F4ED02046FFF7EA
:102EF000B6FF0023237723681A6912F0100F12D04F
:102F0000DA6812F0100F0ED06FF010021A61082369
:102F100023772368DB6913F4407F3DD02046FFF719
:102F20009EFF0023237723681A6912F0010F03D054
:102F3000DA6812F0010F36D123681A6912F0800F97
:102F400003D0DA6812F0800F34D123681A6912F0C6
:102F5000400F03D0DA6812F0400F32D123681A69AB
:102F600012F0200F03D0DA6812F0200F30D110BD1C
:102F7000FFF774FF2046FFF773FF8AE72046FFF74D
:102F80006DFF2046FFF76CFF9BE72046FFF766FFCB
:102F90002046FFF765FFACE72046FFF75FFF2046BE
:102FA000FFF75EFFBDE76FF001021A612046FEF7F2
:102FB0001DF8C1E76FF080021A61204600F039F970
:102FC000C3E76FF040021A612046FFF74AFFC5E7EA
:102FD0006FF020021A61204600F02AF9C7E70000CE
:102FE00003681B4A90420AD0B0F1804F07D0A2F587
:102FF0009432904203D002F58062904203D123F0D4
:1030000070034A681343124A90420AD0B0F1804FCD
:1030100007D0A2F59432904203D002F5806290422C
:1030200003D123F44073CA68134323F080034A6931
:10303000134303608B68C3620B688362044B98423E
:1030400002D00123436170470B690363F9E700BFB6
:10305000002C014040B310B5044690F83D30F3B168
:10306000022384F83D30214651F8040BFFF7B8FFE6
:10307000012384F8463084F83E3084F83F3084F8E9
:10308000403084F8413084F8423084F8433084F88A
:10309000443084F8453084F83D30002010BD80F87D
:1030A0003C30FEF7CBFDDBE70120704710B48468AD
:1030B00024F47F4C42EA03220A4342EA0C02826073
:1030C00010BC704790F83C30012B78D010B5044606
:1030D000012380F83C30022380F83D300268936879
:1030E00023F47F4323F0770393600B68602B4CD06D
:1030F00029D8402B54D00CD9502B22D1CA6849680A
:103100000068FFF71BFE50212068FFF73CFE0020FF
:1031100005E0202B0DD009D9302B0AD00120012346
:1031200084F83D30002384F83C3010BD0BB1102BE7
:1031300005D119462068FFF726FE0020EFE70120A1
:10314000EDE70120EBE7B3F5805F34D0B3F5005F26
:103150000CD1CB684A6889680068FFF7A7FF22682E
:10316000936843F4804393600020D8E7702B24D108
:10317000CB684A6889680068FFF798FF22689368FF
:1031800043F0770393600020C9E7CA684968006884
:10319000FFF7E6FD60212068FFF7F5FD0020BEE7A0
:1031A000CA6849680068FFF7C9FD40212068FFF739
:1031B000EAFD0020B3E70020B1E70120AFE70220DD
:1031C0007047000090F83C30012B2CD010B4012344
:1031D00080F83C30022380F83D3003685A689C68D0
:1031E00022F0700C0A6842EA0C025A6003680F4A27
:1031F00093420AD0B3F1804F07D0A2F594329342A4
:1032000003D002F58062934204D124F080044A681E
:1032100014439C60012380F83D30002380F83C304B
:10322000184610BC70470220704700BF002C0140B8
:1032300070477047014B1868704700BF0C000020B2
:1032400070B50D4E0D4D761BB61006D0002455F806
:10325000043B01349847A642F9D1094E094D06F0C6
:103260004BF8761BB61006D0002455F8043B013409
:103270009847A642F9D170BD309F0008309F0008E2
:10328000389F0008309F0008032A10B516D940EA7D
:10329000010C1CF0030F04460B4622D119462046B0
:1032A000D1F800E0D0F800C00433F44504F1040480
:1032B00017D1043A032A20461946EFD8541EA2B16A
:1032C00000F1FF3C013901E0C3180CD01CF801EFFC
:1032D00011F8012FA4EB0C039645F5D0AEEB0200DC
:1032E00010BD541EECE7184610BD104610BD00BFBF
:1032F000830730B548D0541E002A3FD00346CAB2D7
:1033000001E0013C3AD303F8012B9D07F9D1032CCE
:103310002DD9CDB245EA05250F2C45EA054536D90C
:10332000A4F1100222F00F0C03F1200EE6444FEA44
:10333000121C03F1100242E9045542E90255103211
:103340007245F8D10CF1010214F00C0F03EB0212DC
:1033500004F00F0C13D0ACF1040323F00303043387
:10336000134442F8045B9342FBD10CF003042CB1EC
:10337000CAB21C4403F8012B9C42FBD130BD644609
:103380001346002CF4D1F9E703461446BFE71A466A
:10339000A446E0E70022024B1B68C3E92A027047FB
:1033A0000C0000200A4B10B40A4A1C680A49D4E9F0
:1033B0002A0300FB02F201FB0322A0FB0101431CD4
:1033C00042EB0100C4E92A3020F0004010BC7047F5
:1033D0000C0000202DF451582D7F954C0EB430B5C3
:1033E00004466FF000459CB00B4A1FAB0B49059299
:1033F00053F8042B086802A9CDE901340795049518
:10340000069400F00DF80022029B1A701CB0BDE873
:10341000304003B0704700BF0802FFFF0C000020DF
:103420002DE9F04FD5B00C460C9191460E930A90C1
:1034300002F0BAFE03681846179303F0AFFDA389A4
:103440001690190603D52369002B00F08F870024FE
:103450002BAB224698464D46CDE929442893129439
:1034600000230024CDE914342B78CDE91922CDE9CD
:103470001B2218920892002B00F0CE81AA4604E08D
:103480001AF8013F002B00F00981252BF8D1BAEB87
:10349000050640F007819AF80030002B00F0BC814F
:1034A00000234FF0FF324FF02B0920241F469AF8DB
:1034B000016007920AF1010A8DF8833009930AF13D
:1034C000010AA6F120035A2B00F22081DFE813F055
:1034D000CA021E011E01C5021E011E011E01A30219
:1034E0001E011E016A00F3021E014702D9021E01DD
:1034F000D4025B005B005B005B005B005B005B0079
:103500005B005B001E011E011E011E011E011E014B
:103510001E01B0011E010B027A00B001B001B00122
:103520001E011E011E011E019E021E011E01B6008B
:103530001E011E011E0119021E014C021E011E0168
:103540003F071E011E011E011E011E011E011E015C
:103550001E01B0011E010B027C00B001B001B001E0
:1035600091027C0075001E0184021E017002B800E9
:103570005E0275001E01190272001C071E011E0169
:103580001F071E0172000022A6F130031AF8016B1A
:1035900002EB820203EB4202A6F13003092BF5D9BC
:1035A00009928EE70E9B53F8042B002A09920E9382
:1035B000C0F2D2819AF8006081E79AF8006047F083
:1035C00020077CE747F01007BA060E9B40F17D818B
:1035D000073323F007031A465B6852F8084B9946F5
:1035E0000E92002BC0F27F85079B013301F03980DA
:1035F00054EA090327F0800B00F005850A2C79F1C5
:10360000000380F0938701235F4630348DF84F41EB
:103610000B930DF24F15079A0B9900238A42B8BFFE
:103620000A4606929DF883200D930F9313931093EF
:10363000002A7CD0069B0133069378E047F0100700
:1036400017F0200900F032810E9B073323F00703A7
:10365000D3F8049053F8084B0E93002327F4806BA3
:1036600000228DF88320079A511C00F02A8254EA28
:1036700009012BF0800740F02382002A41F02B80C3
:10368000002B40F0C5841BF001030B9300F0548520
:1036900030230DF24F158DF84F31BCE7BAEB05061C
:1036A00000F0BA802A9BC8E9005633442A93299B2C
:1036B0000133072B299305DC08F10808089B3344E4
:1036C0000893E8E60C990A9828AA03F0C9FC80B987
:1036D0000DF1AC08F2E70C990A9828AA03F0C0FC97
:1036E000002800F08A800D9B1BB10D990A9802F00A
:1036F0005BFC0C9B9B8913F0400F089B18BF4FF09D
:10370000FF330893089855B0BDE8F08F002E00F005
:103710008380012300228DF8EC6006933BAD8DF889
:1037200083200B930D9207920F921392109217F031
:10373000020302D006990231069117F0840B07D1DB
:1037400009990698A1EB0009B9F1000F00F336833F
:103750002A9C82B10122C8F80420299A013401323E
:103760000DF18301072A2A942992C8F8001000F36A
:10377000698308F108087BB10223C8F80430299B4B
:103780000234013321AA072B2A942993C8F8002078
:1037900000F36C8308F10808BBF1800F00F02E8263
:1037A000079B0B9AA3EB020BBBF1000F00F3718296
:1037B000FB0500F1C5810B9BC8F800501C44C8F8FC
:1037C0000430299B2A940133072B299300F3EA82C2
:1037D00008F108087B0705D5099B069A9D1A002D5C
:1037E00000F35083DDE9083206998A42ACBF9B188A
:1037F0005B180893002C7FF46EAF002329930D9B78
:103800001BB10D990A9802F0CFFB55460DF1AC089B
:103810002B78002B7FF432AE2A9B002B3FF469AF4C
:103820000C9C0A98214628AA03F01AFCA38962E797
:103830000E9B073323F00702F2E80234CDE914347B
:10384000DDE9143424F00044994618460E922146CE
:103850004FF0FF32B64BFDF76FF9002840F0968429
:10386000484621464FF0FF32B14BFDF747F900289B
:1038700040F08C84DDE9140100220023FDF734F9C7
:10388000002840F0A6879DF8832000210320A94D41
:10389000A94B27F080070D910690472EC8BF1D4603
:1038A00007910B900F9113911091C1E617F010033F
:1038B00040F0628417F0400200F07B870E9A994630
:1038C00052F8044B0E92A4B2C7E653F8044B0E9381
:1038D000FB0600F141847D0640F13B8444F3C0398E
:1038E0004B4624B27DE6012000220E9B069053F841
:1038F000041B3BAD8DF883208DF8EC100E930B90DC
:1039000010E74FF000090E9C079B54F8045B8DF8FC
:103910008390002D00F0EE865A1C00F060851A4658
:103920004946284602F0F8FE0D90002801F09E80DE
:103930000D9B9DF883205B1B0B9323EAE373CDF86B
:103940001C900E940693CDF83490CDF83C90CDF8B1
:103950004C90CDF840906BE6099B5B4209939AF836
:10396000006047F00407AAE547F0100B1BF02009A0
:1039700000F0AA830E9B073323F007031A4652F880
:10398000084BD3F804900E92012369E63022782682
:103990000E9B8DF8842053F8044B684A0E934FF029
:1039A0000009022347F0020B8DF88560189257E654
:1039B000BD0600F1D683FC0600F19386780600F17F
:1039C0005D87B90540F18D860E9B089953F8042B4D
:1039D000554611700E931BE79AF800606C2E03BFDA
:1039E0009AF8016047F020070AF1010A47F0100732
:1039F00065E59AF80060682E03BF9AF8016047F405
:103A000000770AF1010A47F0400758E59AF800608C
:103A100047F0080753E50A9E304602F0C5FB4368AD
:103A200018461B9303F0BAFA034630461C931E4611
:103A300002F0BAFB83681993002E3FF4BBAD199BCB
:103A4000002B3FF4B7AD199B1B78002B3FF4B2ADB0
:103A50009AF8006047F4806731E59AF8006047F013
:103A600001072CE59DF88330002B7FF4A3AD9AF875
:103A700000608DF8834022E59AF8006047F08007E7
:103A80001DE5524612F8016B2A2E01F0EB81A6F1DA
:103A90003003092B924698BF002201F203801AF8E6
:103AA000016B02EB820203EB4202A6F13003092B09
:103AB000F5D9079205E59AF800608DF88390FEE449
:103AC000BB46012B3FF49AAD022B54AD12D1189A8C
:103AD00004F00F03D35C240944EA09744FEA19196E
:103AE00005F8013D54EA0903F2D154AB5B1B5F4674
:103AF0000B9390E504F00703E40844EA49744FEAA5
:103B0000D909303354EA09012A4605F8013DF1D1BB
:103B10001BF0010FE9D0302BE7D03023023A05F833
:103B2000013C54AB9B1A5F4615460B9373E500BFEF
:103B3000FFFFEF7F2C9B0008309B00083C9B000898
:103B4000652E40F3E980DDE9140100220023FCF733
:103B5000C1FF002800F0D2810123C8F80430299B5E
:103B6000BF4A01330134072B2A942993C8F8002057
:103B700000F37A8508F10808229B129A934280F29A
:103B8000D782169B179A1C44C8E90023299B2A94C4
:103B90000133072B299300F3DD8308F10808129BFA
:103BA0005D1E002D7FF716AE102D41F34181DFF829
:103BB000B492224649461026B946299B0F46DDF8A5
:103BC00028B00C9C05E008F10808103D102D40F3CA
:103BD000588501331032072BC8E90076CDE9293228
:103BE000F1DD2146584628AA03F03AFA00287FF46E
:103BF0007AADDDE929320DF1AC08E6E7099B069ABA
:103C0000A3EB020BBBF1000F7FF7CAADBBF1100FA6
:103C100041F30580DFF84C9241462046A8464C46C9
:103C20001023299A0C9DDDF8289006E0ABF1100BCB
:103C3000BBF1100F01F1080119DD01321030072A24
:103C4000C1E90043CDE92920F0DD2946484628AAEC
:103C500003F006FA00287FF446ADDDE92920ABF138
:103C6000100BBBF1100F4FF010032BA9E5DC4546FC
:103C7000A1468846044601325C44072ACDE929243E
:103C8000C8F80090C8F804B000F3188508F10808D7
:103C900086E5BBF1100F40F39785DFF8C8914146E8
:103CA0002046A8464C461023299A0C9DDDF8289002
:103CB00006E0ABF1100BBBF1100F01F1080119DDAB
:103CC00001321030072AC1E90043CDE92920F0DD97
:103CD0002946484628AA03F0C3F900287FF403AD1B
:103CE000DDE92920ABF1100BBBF1100F4FF01003F1
:103CF0002BA9E5DC4546A1468846044601325C44D2
:103D0000072ACDE92924C8F80090C8F804B000F3C8
:103D1000CE8108F108084BE5129B012B40F37E8110
:103D20000123299E01341E44072EC8F800502A940E
:103D3000C8F80430299600F3E18108F10808169BC1
:103D40000136179A1C44072EC8E90023CDE92964DF
:103D500000F3E18108F108080022DDE914010023E5
:103D6000FCF7B8FE002840F07681129B0136013B3B
:103D700001351C44072EC8F800502996C8F80430B5
:103D80002A9400F35B8108F108081A9B01361C4451
:103D9000C8F80430072E24ABCDE92964C8F80030F8
:103DA0007FF716AD0C990A9828AA03F059F9002854
:103DB0007FF499AC2A9C0DF1AC080BE5B9F1100F1A
:103DC00040F35086DDE929214046CDE91D36B8464D
:103DD00010244F460C9EA9460A9D04E0103F102F68
:103DE00000F1080016DD01321F4B1031072AC0E92F
:103DF0000034CDE92921F1DD3146284628AA03F017
:103E00002FF900287FF46FACDDE92921103F102F36
:103E10002BA8E8DC4D46DDE91D36B946474680460D
:103E200009EB010401321049072ACDE92924C8F819
:103E30000490C8F8001000F3C3839DF8832008F1B4
:103E4000080886E40C990A9828AA1D9303F008F93B
:103E500000287FF448AC2A9C1D9B0DF1AC088AE435
:103E60006C9B0008809B0008709B00080C990A98C6
:103E700028AA03F0F5F800287FF435AC2A9C0DF150
:103E8000AC0889E4102D40F3C4861026299B0A9FB4
:103E9000DDF8309004E0103D102D08F1080817DD22
:103EA0000133B84A1034072BC8E90026CDE929347C
:103EB000F1DD4946384628AA03F0D2F800287FF4FD
:103EC00012ACDDE92934103D102D0DF1AC08E7DC12
:103ED0000133AC4A2C44072BCDE92934C8F80450EF
:103EE000C8F800207FF77EAC0C990A9828AA03F046
:103EF000B7F800287FF4F7AB2A9C73E422990029D5
:103F000040F36F83DDF84090129B9945A8BF994616
:103F1000B9F1000F0BDD299B4C440133072BC8E995
:103F200000592A94299300F31D8508F10808109E72
:103F3000B9F1000FA8BFA6EB0906002E00F32582F9
:103F4000DDF840B07805AB4400F15F82229B129A05
:103F5000934202DBF90740F17684169A17991444CC
:103F6000C8E90012299A2A940132072A299200F3FB
:103F7000138508F10808129AAE18A6EB0B06D51A9D
:103F8000AE42A8BF2E46002E0DDD299B34440133DE
:103F9000072BC8F800B0C8F804602A94299300F3EE
:103FA000718508F10808002EA8BFAD1B002D7FF712
:103FB00011AC102D40F33C87DFF8CC9122464946E6
:103FC0001026B946299B0F46DDF828B00C9C05E069
:103FD00008F10808103D102D40F3538301331032CF
:103FE000072BC8E90076CDE92932F1DD2146584694
:103FF00028AA03F035F800287FF475ABDDE92932F3
:104000000DF1AC08E6E7079B002B7FF4FCAA5F46A6
:10401000002354AD07930B93FFF7FDBAFA073FF562
:104020007FAE0123299E01341E44072EC8F800509C
:104030002A94C8F8043029967FF7A5AE0C990A98FF
:1040400028AA03F00DF800287FF44DABDDE92964C0
:104050000DF1AC0899E6129B5D1E002D7FF795AE21
:10406000102D40F3DF86224607974FF0100BDFF844
:1040700018910A9C0C9F05E008F10808103D102DCE
:1040800040F37F8301361032072EC8E9009BCDE94B
:104090002962F1DD3946204628AA02F0E1FF002816
:1040A0007FF421ABDDE929620DF1AC08E6E70C995C
:1040B0000A9828AA02F0D4FF00287FF414AB2A9CA7
:1040C0000DF1AC08FFF774BB1BF010030E9A3AD148
:1040D0001BF0400133D052F8044B99460E92012355
:1040E000A4B2FFF7BDBA2D2364428DF88330BB46DE
:1040F0004FF0010369EB4909FFF7B5BA0C990A982B
:1041000028AA02F0ADFF00287FF4EDAADDE92964BA
:104110000DF1AC0813E60C990A9828AA02F0A0FF4A
:1041200000287FF4E0AADDE929640DF1AC0813E66C
:10413000FD077FF54FAB24E554ADFFF76CBA1BF4D8
:10414000007940F08A8352F8044B01230E92FFF766
:1041500087BAB80500F19B834FEAE4794B46FFF735
:1041600040BA0E9B089853F8041BC2175546C1E984
:1041700000020E93FFF74CBB0E9B53F8044B0E93BB
:10418000FFF76BBA709B0008809B0008DDE9140103
:1041900002460B46FCF7D0FC002840F0E985612E72
:1041A00000F07D85412E00F08B84079B013300F0E9
:1041B0008F8326F02003472B069300F08F85DDE9DF
:1041C000141247F480730F931346002BC0F2B0858E
:1041D0000B9300238B461D930D93069B462B00F0FB
:1041E000E983452B00F0468507990B9B019102213D
:1041F000009126A9049123A9039122A95A460A985D
:10420000029100F005FF069B0546472B40F03A86D9
:1042100017F0010FB9460F9F40F0FE84269B5B1BF1
:104220001293069B472B00F06E83069B462B00F0F3
:10423000F083229B1093109B069A013B412A229304
:1042400000F0BB850021F2B2002B8DF89020B6BFA4
:104250002D222B22109B8DF89120B8BFC3F10103B2
:10426000092B40F39B850DF19F0C6246B64F1C460F
:10427000104687FB0312D917C1EBA20101EB8102A3
:10428000A3EB42023032632C00F8012C0B4600F104
:10429000FF32ECDC3033811EDBB28C4502F8013C8E
:1042A00040F2F9850DF1920101E012F8013B9445CD
:1042B00001F8013BF9D10DF1A1030DF192021B1A96
:1042C000134424AA9B1A1A93129B1A9A012B1A447C
:1042D0000B9240F381850B9B169A13440B9300239A
:1042E0000B9A29F4806722EAE27247F480770F93F1
:1042F0000692139310931D9B002B40F02C839DF886
:1043000083200793FFF794B9BB46FFF72FBB8F4B72
:10431000189317F0200900F0F5800E9B073323F067
:104320000703D3F8049053F8084B0E93F80709D508
:1043300054EA090306D030238DF8856047F0020760
:104340008DF88430022327F4806BFFF789B9804B06
:104350001893DEE70C990A9828AA02F081FE00283B
:104360007FF4C1A92A9C0DF1AC0818E440210A98F9
:1043700001F026FF0C9B18601861002800F097855B
:1043800040230C9A5361FFF762B8102E40F37685F4
:10439000DFF8C091424648462146A846B9464FF04C
:1043A000100B0746299B0A9C0C9D04E00832103E26
:1043B000102E40F3138201331031072BC2E9007B2A
:1043C000CDE92931F2DD2946204628AA02F048FE2F
:1043D00000287FF488A9DDE929312BAAE7E72846E0
:1043E000CDF81C900E9402F0D9FD20EAE0739DF800
:1043F00083200B90CDF83490CDF83C90CDF84C90C4
:10440000CDF840900693FFF713B9129B4246DDF8B2
:104410004C80EB185E460793CDF82CA010972146F0
:10442000199FDDF87090DDF828A0DDF830B00F9B03
:104430001395B8F1000F2ED083BB013F08F1FF3870
:104440001B9B4944C2E90039299B2A910133072B60
:10445000299360DC0832079B38789B1B8342A8BFF6
:104460000346002B1C460BDD299819440130072810
:10447000C2E900632A91299000F314813878083248
:10448000002CB4BF0546051B002D0BDC06440F9B1A
:10449000B8F1000FD0D1002B00F026820F9B013B1A
:1044A0000F93CDE7102D40F39D841024299804E04C
:1044B000103D102D02F1080216DD0130254B1031A0
:1044C0000728C2E90034CDE92901F1DD59465046FB
:1044D00028AA02F0C5FD00287FF405A9DDE929011D
:1044E000103D102D2BAAE8DC01301A4B2944072877
:1044F000CDE929015560136000F341823878083214
:104500000644C4E717F0100300F0A0800E9B53F898
:10451000044B0E930AE75946504628AA02F0A0FD24
:1045200000287FF4E0A82A992BAA94E700230BF433
:1045300080620696CDF82CA0CDF8348092461E46B7
:10454000DDF8648054AF14E0676666663C9B000843
:10455000509B0008809B00080023204649460A2201
:10456000FCF700FB0A2C79F100031BD304468946B3
:104570002F4620460A2200234946FCF7F3FA303240
:104580007D1E013607F8012CBAF1000FE4D098F82F
:1045900000309E42E0D1FF2EDED00A2C79F10003DC
:1045A00080F0308154AB5B1BDDF82CA0CDF864802B
:1045B00012965F46069EDDF834800B93FFF72BB80A
:1045C0000C990A9828AA1D9302F04AFD00287FF44E
:1045D0008AA89DF883202A9C1D9B0DF1AC08FFF74B
:1045E000B8B80123C8F80430299BBC4A0133013410
:1045F000072B2A942993C8F8002000F3178108F1AB
:104600000808002940F08680129A07F0010313433E
:104610003FF4E0A8169B17991A19C8E90013299BC3
:104620002A920133072B299300F3378108F10808F8
:10463000129901338C18072BCDE92934C8F80050A2
:10464000C8F804107FF7C4A8FFF7ACBB17F040020E
:1046500000F0A5800E9A994652F8044B0E92A4B22F
:1046600064E6BB46FEF7CABF0C990A9828AA02F076
:10467000F7FC00287FF437A82A9C0DF1AC08FFF75F
:104680007BBA14463A464F46914601332C44072BD9
:10469000C8F80090C8F80450CDE929347FF798A8ED
:1046A000FFF780BB5946504628AA02F0D9FC0028E3
:1046B0007FF419A838782A992BAAE1E60C990A9870
:1046C00028AA02F0CDFC00287FF40DA82A9C0DF149
:1046D000AC08FFF765B8012BBB467FF4F5A9FEF7E0
:1046E00092BF0E9B089953F8042B554611600E9308
:1046F000FFF78EB8062B294628BF06232A460795C2
:104700000D950693764D0E940B930F911391109186
:10471000FEF78EBF169B17981A19C8E90003299B4C
:104720002A920133072B299300F3B78008F1080878
:104730000029BFF67DAF4E42103180F2A983414679
:104740001024A846DFF89C91DDF828B00C9D04E009
:104750000831103E102E40F3A78201331032072B90
:10476000C1E90094CDE92932F2DD2946584628AA4C
:1047700002F076FC00287EF4B6AFDDE929322BA9E1
:10478000E7E71446079F01362C44072ECDE929643C
:10479000C8F80090C8F804507FF7F5AA4EE417F463
:1047A00000790E9B66D053F8044B91460E93E4B209
:1047B000BCE517F400790E9B57D053F8044B914693
:1047C0000E93E4B2FEF749BF299ADFF81891FFF77C
:1047D00095BA2D228DF88320FFF757B845469046AD
:1047E0003A460C464F46914601333444072BCDE9F7
:1047F0002934C8F80090C8F804605CDC08F10808A7
:10480000FFF79EBB1C9B1B99ED1A1A46284602F027
:10481000F3FB98F801300BB108F101082046494636
:104820000A2200230026FCF79DF99FE60C990A98BE
:1048300028AA02F015FC00287EF455AF22992A9C84
:104840000DF1AC08DDE6129AAE18A6EB0B06D51AF0
:10485000AE42A8BF2E46FFF7A6BB52F8044B8946CE
:1048600001230E92E4B2FEF7FBBE53F8044B0E9305
:10487000FEF7F3BE53F8044B0E9357E50E9B0899D1
:1048800053F8042B554611800E93FEF7C1BF44F335
:10489000C0194B4664B2FEF7A4BE0C990A9828AA28
:1048A00002F0DEFB00287EF41EAFDDE929322299FA
:1048B0000DF1AC083CE70C990A9828AA02F0D0FB4D
:1048C00000287EF410AF2A9C0DF1AC08FFF738BB2E
:1048D0000623079326F02003069370E46C9B0008E0
:1048E000649B0008809B0008DDE91235EB189E42AE
:1048F000B346199790460C4628BF9B46DDF82CA07E
:10490000109FFFF723BB229BDA1C109302DB079A50
:10491000934204DD023E26F0200306938BE4109BB5
:10492000129A9342C0F2C28019F0010F00F01D826A
:10493000169A13440B9319F4806F00F01482109BA5
:104940006726002B76DC0B9B23EAE3730693002398
:104950000F931393CFE42D2200238DF88320079328
:10496000FEF768BE0C990A9828AA02F079FB002885
:104970007EF4B9AE2A9C0DF1AC08FFF7D8BA5946BF
:10498000504628AA02F06CFB00287EF4ACAE3878C2
:104990002A992BAA06447AE50C990A9828AA02F0CB
:1049A0005FFB00287EF49FAE229B2A9C0DF1AC0891
:1049B000FFF7E1BA07990B9B01910321009126A90A
:1049C000049123A9039122A95A460A98029100F062
:1049D0001FFB03780546302B00F01682229B079AB6
:1049E000B94613440F9FEC185846002200230B9938
:1049F000FCF770F808B1234611E4269BA342BFF4EC
:104A00000EAC30215A1C26921970269B9C42F9D874
:104A100005E4229A002A109240F30E82079909F0C9
:104A200001030B4340F07E816626109B0B9319F423
:104A3000806F88D019990B78FF2B00F02582002415
:104A4000109A204604E001300131FF2B00F059811B
:104A5000934280F25681D21A4B78002BF3D10B7817
:104A60000134F2E7DDE92921FFF7DAB9079B9DF868
:104A700083200E9406930B9307900F901390109041
:104A8000FEF7D6BD0C990A9828AA02F0E9FA002888
:104A90007EF429AE229D129B2A9C0DF1AC085D1B71
:104AA000FFF781BA00230793FEF70BBD129B169AFE
:104AB0009A18109B0B92002B40F385816726B6E76E
:104AC00030238DF8843058238DF88530079B47F0CC
:104AD0000204632B00F3C48000233BAD0D9347F425
:104AE00081730F93DDE914121346002B2746C0F2A1
:104AF00084800B9300238B461D9326F0200306939E
:104B0000612E00F01881412E7FF467AB22AA58462F
:104B10000B9902F0F9F900224FF07F53FBF772FD79
:104B200002460B46CDE9102300220023FBF7D2FFFB
:104B300008B101232293AD4B0B93079BCDE912A63D
:104B4000CDE91E78DDE91067AB46DDF82CA003F156
:104B5000FF39109506E00022002309F1FF39FBF729
:104B6000B9FFE8B90022A24B30463946FBF74AFDAF
:104B70000F460646FBF7A8FC0446FBF73BFC0B463A
:104B8000024639463046FBF7E7FA1AF80430B9F125
:104B9000FF3FD8464D4606460F460BF8013BDAD19B
:104BA000304639460022934BA946DDF848A0109DB7
:104BB000CDF84880CDE91001DDF87C80139E1E9F62
:104BC000FBF7B0FF80BBDDE910010022894BFBF74A
:104BD00081FF08B1E10727D44B46002B06DB3022CA
:104BE00001335B440BF8012B5B45FBD1ABEB0503B9
:104BF000B94612930F9FFFF714BB26F020030693CC
:104C00002D22DDE914349B4604F100431D920B93E1
:104C100076E7299BFFF75CB9079BEC18E4E6299A35
:104C2000DFF8D491FFF727B8129B26930B9B1BF854
:104C3000012CD97B5B468A4209D1302003F8010C54
:104C4000269B5A1E269213F8012C9142F6D0392A3F
:104C50000BBF0B9A0132927AD2B203F8012CC5E74E
:104C60000A98591C01F0ACFA0546002800F017819B
:104C70000D9034E70221009107995A464C1C26A951
:104C8000049123A9039122A90B9B0A9801940291F4
:104C900000F0BEF90546B9462C440F9FA4E6302328
:104CA0008DF8843078230FE7454688460133324437
:104CB000072BCDE92932C8F80090C8F804607FF7C7
:104CC000B5AC0C990A9828AA02F0CAF900287EF41B
:104CD0000AADDDE929320DF1AC08A9E4079B002BF0
:104CE00008BF0123079347F480730F93159B002B94
:104CF000C0F2B680DDF850B00D900B931D90FFF719
:104D000073BA1991109213900F940F9A139B1C99D8
:104D100013440B9A01FB03230B9323EAE3730693DB
:104D2000FFF7E9BA169B6626D31819440B917EE665
:104D300000230D9364E722AA58460B9902F0E4F889
:104D400000224FF07F53FBF75DFC02460B46CDE996
:104D5000102300220023FBF7BDFE08B1012322939C
:104D6000264B0B93E9E66726EDE5109B0B93E2E5F6
:104D7000159B0320002BB8BF2D224FF00003A8BFC6
:104D80009DF8832019460D931D4D1E4BB8BF8DF81D
:104D9000832027F080070690FEF77FBD002944D1CD
:104DA00030228DF892200DF19302303302F8013B4E
:104DB00024ABD31A1A93FFF787BA06F10F02012129
:104DC000D2B2FFF741BAC3F101031A4422EAE273F7
:104DD00067260B920693BAE519F0010F3FF47FAAFC
:104DE000FFF779BA2998FFF77FBB00BF509B0008F7
:104DF000000030400000E03F809B00083C9B000822
:104E0000349B0008389B00085846002200230B9969
:104E1000FBF760FE00287FF4E1AD079BC3F10103BF
:104E20002293DCE5DFF89890ADE40DF19202BCE747
:104E3000299BDFF88C9028E4079A09F0010959EAC8
:104E4000020304D10123662606930B937FE5169B8C
:104E5000662601331A4422EAE2730B92069376E542
:104E60000D90CDE60E9B9AF80160924653F8042B04
:104E70000E9342EAE2730793FEF721BB299BDFF80A
:104E80004090B1E4079C06E700230F9313933CE79F
:104E9000DFF82C900AE702231A93FFF715BA0C9952
:104EA0008B8943F0400213468A81FEF724BC4FF001
:104EB000FF320C2308920A9A1360FEF723BC00BF4E
:104EC000809B0008024B13B1024800F005B8704700
:104ED00000000000DD5E0008002301461A46184667
:104EE00002F03CB92DE9F04F03690C6985B0A3428B
:104EF000C0F28980013C01F11405A30000F11408FF
:104F0000019355F8243058F8242001338A469A42F8
:104F100008EB84018146B2FBF3F605EB84070291AE
:104F20003AD30021AE4640460A46A34603955EF8B2
:104F3000045B0468ABB206FB03132D0C190C06FBD3
:104F400005119BB2D21A1FFA84FC94448AB2C2EBB8
:104F5000144202EB2C421FFA8CFC4CEA02437745C8
:104F600040F8043B4FEA11414FEA2242DFD2019B55
:104F70005C4658F80330039D73B9029B043B984587
:104F800004D307E0984504F1FF3403D253F8042911
:104F9000002AF7D0C9F810405146484601F08CFE6F
:104FA00000282CDB40460023013655F8041BD0F8BE
:104FB00000C08AB29A1A1FFA8CFE0B0C7244C3EB23
:104FC0001C4303EB224392B242EA0342AF4240F851
:104FD000042B4FEA2343E8D258F8242008EB84033B
:104FE0006AB9043B984504D307E0984504F1FF34BF
:104FF00003D253F80429002AF7D0C9F810403046EC
:1050000005B0BDE8F08F002005B0BDE8F08F00BF0F
:105010002DE9F04F90469946016C99B00446CDE9D0
:105020000489259D41B10123426C93408B604A6005
:1050300001F0ECFB00232364B9F1000AB4BF0123A3
:1050400000232B60764BBCBF2AF0004ACDF814A099
:1050500033EA0A0300F0AA80DDE90423104619466A
:1050600000220023CDE90A01FBF734FD074670B1A9
:105070000123249A1360269B002B00F0E6826948E6
:105080001860431E0393039819B0BDE8F08F16AB68
:10509000019317AB00932046DDE90A2301F0D2FE0D
:1050A0005FEA1A56054640F09780DDE916763E44E1
:1050B00006F23240202840F3B783C0F140000AFADC
:1050C00000FA06F2124028FA00F04AEA0000FBF764
:1050D00081F90123013E0F93A1F1F8710022524B97
:1050E000FBF73AF848A3D3E90023FBF78BFA48A370
:1050F000D3E90023FBF732F8804630468946FBF7B8
:1051000079F945A3D3E90023FBF77CFA02460B4665
:1051100040464946FBF722F880468946FBF7D4F91A
:1051200000228346002340464946FBF7DDFC002869
:1051300040F07E82BBF1160F00F26D82DDE90A01BC
:105140003A4B03EBCB03D3E90023FBF7CDFC00285C
:1051500072D00023BE1B0E93731E0BF1FF3B069310
:1051600000F1608200230993BBF1000F6BDA099B09
:10517000CDF81CB0A3EB0B030993CBF100030D9307
:10518000229B4FF0000B092B66D8052B40F34A8376
:105190000026043B2293229B023B032B00F26C86E9
:1051A000DFE813F061045E045504380442F20F7323
:1051B000249ACAF3130A13605AEA08031AD1269BE9
:1051C000002B00F068861A4B03930833269A039845
:1051D000136019B0BDE8F08FDDE90A12C2F31303C2
:1051E000084643F07F510F97A6F2FF36169F41F411
:1051F000401173E7269B002B40F0EF830D4B039388
:1052000041E700BFAFF3008061436F63A787D23FE0
:10521000B3C8608B288AC63FFB799F501344D33FA5
:105220000000F07F6D9B00080000F83FE09C000844
:10523000949B0008909B0008BE1B731E069300F110
:105240008A840E900990069B5B44CDE9063B0023BF
:105250000D93229B092B98D9002322934FF0FF3303
:105260000126089300230C9623930021089B616478
:105270001293204601F0A4FA0390002800F004865F
:10528000039B2364089B0E2B00F21481002E00F078
:1052900011810799002940F36084AF4B01F00F02A0
:1052A00003EBC2030A46D3E900674FEA2118D10590
:1052B00040F11784DDE90A01A84B4FF0030AD3E956
:1052C0000823FBF7C9FACDE9100108F00F08B8F17F
:1052D000000F13D0DFF8849218F0010F09D0D9E93C
:1052E000002330463946FBF78DF906460F460AF192
:1052F000010A5FEA680809F10809EDD1DDE910014A
:1053000032463B46FBF7A8FA804689460E9B43B1DE
:10531000002240464946924BFBF7E6FB002840F04E
:1053200035855046FBF766F842464B46FBF76AF96F
:105330008C4B0022FAF712FFA1F15073CDE9100156
:105340001193089B002B00F09780079B1493089BF8
:1053500013930C9B002B00F0A984139A7E4B002022
:1053600003EBC20353E902237F49FBF775FADDE93A
:105370001023FAF7F1FECDE9100149464046FBF74C
:10538000A3F80746FBF736F802460B464046494667
:10539000FAF7E2FEDDE91023039E303706F8017BC1
:1053A00080468946FBF7A0FB002840F02E85CDF80B
:1053B00054B00027DDE910AB1095139D13942AE03B
:1053C0000137AF4280F22E85504659460022674B86
:1053D000FBF718F90022654B82468B46404649464A
:1053E000FBF710F989468046FBF76EF80446FBF799
:1053F00001F802460B4640464946FAF7ADFE303406
:1054000052465B4606F8014B80468946FBF76CFB2B
:10541000002840F0F88442464B4600205049FAF7F5
:105420009BFE52465B46FBF75FFB0028C8D0DDE9D8
:105430001343109D039A079302E0964200F0CD8437
:10544000B24616F8013D392BF7D00133DBB2337089
:10545000079B01330793C8E15046FAF7CBFF42465A
:105460004B46FBF7CFF83F4B0022FAF777FEA1F14E
:105470005073CDE9100111934046494600223C4B40
:10548000FAF76AFEDDE910894B46424606460F46AA
:10549000FBF748FB8146002840F0AF84DDE91001AE
:1054A000024601F1004330463946FBF71DFB002858
:1054B00040F04883179B002BC0F28C80079A0E2A7D
:1054C00000F38880244B03EBC203D3E900AB239B9A
:1054D000002B1BDA089B002B18DC40F031830022E4
:1054E000234B50465946FBF78DF802460B46DDE943
:1054F0000A01FBF703FBDDF820904E46002800F080
:10550000CA82239BDDF80C80DF43CCE25246DDE902
:105510000A785B4638464146FBF79EF9FAF7D4FF16
:1055200081460990FAF766FF52465B46FBF76AF838
:10553000039E0B46024641463846FAF70DFE09F136
:10554000300306F8013B089B012B00F05F830694B3
:1055500001271C4604952AE0E09C0008B89C00083E
:105560000000F03F00001C400000E03F000024402D
:105570000000144052465B4640464946FBF76CF932
:10558000FAF7A2FF0546FAF735FF52465B46FBF7EE
:1055900039F801370B46024649464046FAF7DCFD2A
:1055A00005F13003A74206F8013B00F02C830022EE
:1055B000AB4BFBF727F80022002380468946FBF718
:1055C00089FA0028D6D0049D069C079BB246013379
:1055D00007930AE10C9A002A3DD0229A012A40F34F
:1055E0009F82089B03F1FF380D9B4345C0F27082F8
:1055F000A3EB0808089B002BC0F24083069A1A44CC
:105600000692099A17461A4409920121204601F090
:10561000A5F9064623E00123BE1B0E93731E0693D5
:105620007FF5A0ADC6F101030993002306939BE526
:105630005846FAF7DFFE42464B46FBF74BFA002886
:105640007FF478AD0BF1FF3B74E5864B0393039831
:1056500019B0BDE8F08FDDF83480099F0C9E002F53
:105660000CDD069900290B4608DDB942A8BF3B4670
:10567000099AFF1AD21ACB1A099206930D9BE3B12D
:105680000C9B002B00F06082B8F1000F10DD31465A
:105690004246204601F03EFA06462A46314620465A
:1056A00001F08AF90346294620461D4601F0AEF86E
:1056B0000D9BB3EB080240F0DB820121204601F094
:1056C0004DF9BBF1000F814600F3B380229B012B03
:1056D00040F388814FF0000A0120BBF1000F40F039
:1056E000B480069A104410F01F0000F09280C0F1C0
:1056F0002003042B40F3D383099BC0F11C00034417
:105700000244099307440692099B002B05DD2946B4
:105710001A46204601F05AFA0546069B002B05DD85
:1057200049461A46204601F051FA81460E9B002B4D
:1057300040F03881089B002B40F31E810C9B002B0E
:1057400040F09F80079B013307930127DDF80C8011
:10575000DDF820A007E0294600230A22204601F0B8
:105760005FF80546013749462846FFF7BBFB57451A
:1057700000F1300308F8013BEDDB089A0027002A0E
:10578000CCBF93464FF0010B039A93442946012264
:105790002046049301F01AFA4946054601F08CFAB6
:1057A000002840F3AB811BF8013C039A0BF1FF3B4F
:1057B00004E05A4500F0AD811BF8013D392B0BF197
:1057C000010AF6D001338BF800304946204601F03B
:1057D0001DF856B12FB1B74203D03946204601F02B
:1057E00015F83146204601F011F82946204601F00F
:1057F0000DF80023079A8AF80030249B1A60269B34
:10580000002B3FF440AC0398C3F800A019B0BDE8EA
:10581000F08F1C20099B074403440993069B034413
:10582000069371E70126B6E4C0F1200008FA00F003
:105830004DE401465A46204601F06CF9229B814610
:10584000012B40F3B6814FF0000AD9F8103009EB74
:105850008303186901F036F8C0F1200041E700BF6A
:10586000000024406C9B0008314600230A22204699
:1058700000F0D6FF129B0646002B40F3E982CDE9EB
:105880000783002F00F31D81BAF1000F40F0D9818A
:10589000B046049B089903F00102039B0A921F463D
:1058A000013B1944229B089113430993494628461A
:1058B000FFF718FB31468346284601F0FDF94246C2
:1058C00049468246204601F017FAC26801460BF1AC
:1058D0003003002A43D104902846069301F0ECF9E6
:1058E000024604992046049200F090FF049A069B19
:1058F0001AB90999002900F09B82BAF1000FC0F291
:10590000648122994AEA010A0A9951EA0A0100F0DF
:105910005C81002A00F3B681089A07F1010A9742D8
:10592000D3463B7000F0B481294600230A2220466A
:1059300000F076FF4645054631464FF000034FF034
:105940000A02204612D000F06BFF414606460023B3
:105950000A22204600F064FF57468046A6E720460C
:10596000049300F053FF0122049BC6E700F058FFA8
:1059700057460646804699E7229B022B7ADC0C9B11
:10598000002B7FF47EAF079B4946013328460793DF
:10599000FFF7A8FADDF80CB000F1300300270BF890
:1059A000013BF3E64946284601F086F90028BFF698
:1059B000C1AE294600230A22204600F031FF079B92
:1059C000054603F1FF380C9B002B7FF44DAF129B73
:1059D000002B40F334820893B7E6B04B03930333B4
:1059E000FFF7F4BBDDE9041200297FF473AEC2F3C4
:1059F0001303002B7FF46EAEA94B1340002B00F075
:105A00000082099B4FF0010A01330993069B013381
:105A1000069361E601230C93239B079A1344129388
:105A20000133012B1F46B8BF012708930021172F10
:105A300061647FF71EAC012204235B0003F11400B4
:105A4000B842114602F10102F7D9616411E4012361
:105A50000C93239B002B4CDD1F4612930893E5E724
:105A600000230C93D8E700230C93F2E7129BCDF8A8
:105A70001C800893089B002B7FF443AD4946052208
:105A8000204600F0CDFE81462846494601F014F933
:105A900000287FF736AD31230398079F804600F832
:105AA000013B013703904946204600F0AFFE7B1CC6
:105AB000DDF80CA00793CDF80C80002E7FF491AE9A
:105AC00093E631463A46204601F080F80646DBE68A
:105AD0000D9BCDF83480A8EB03039B444FF00008E6
