:020000040800F2
:1000000000500020010B0008FD090008FF0900084E
:10001000010A0008030A0008050A000800000000A1
:10002000000000000000000000000000070A0008B7
:10003000090A0008000000000B0A00080D0A000869
:10004000490B0008490B0008490B0008490B000840
:10005000490B0008490B0008150A00081F0A000890
:10006000290A0008330A0008490B0008490B000858
:10007000490B0008490B0008490B0008490B000810
:10008000490B0008490B0008490B0008490B000800
:10009000490B0008490B0008490B0008490B0008F0
:1000A000490B0008490B0008490B0008490B0008E0
:1000B000490B0008490B00083D0A0008490B0008DD
:1000C000490B0008490B0008490B0008490B0008C0
:1000D000490B0008490B0008490B0008490B0008B0
:1000E000490B0008490B0008490B000800000000FC
:1000F0000000000000000000000000000000000000
:0C01000000000000000000005FF808F1A3
:10010C0010B5054C237833B9044B13B10448AFF345
:10011C0000800123237010BD3C040020000000006F
:10012C004022000808B5034B1BB103490348AFF349
:10013C00008008BD000000004004002040220008A0
:10014C00844641EA000313F0030349D1403A23D318
:10015C000B6803604B6843608B688360CB68C3603B
:10016C000B6903614B6943618B698361CB69C36123
:10017C000B6A03624B6A43628B6A8362CB6AC3620B
:10018C000B6B03634B6B43638B6B8363CB6BC363F3
:10019C0040304031403ADBD230320BD30B68036035
:1001AC004B6843608B688360CB68C3601030103140
:1001BC00103AF3D20C3205D351F8043B40F8043B0F
:1001CC00043AF9D2043208D0D2071CBF11F8013B13
:1001DC0000F8013B01D30B8803806046704700BFD9
:1001EC00082A13D38B07B1D010F00303AED0C3F1A0
:1001FC000403D21ADB071CBF11F8013B00F8013BCA
:10020C00A4D331F8023B20F8023B9FE7043AD9D340
:10021C00013A11F8013B00F8013BF9D20B7803705D
:10022C004B7843708B7883706046704710B588B0FC
:10023C0000240494059406940794244B9A6942F084
:10024C0020029A619A6902F020020192019A9A693D
:10025C0042F004029A619A6902F004020292029A34
:10026C009A6942F008029A619B6903F008030393B0
:10027C00039B0F230493164B05930123069304A9A8
:10028C00144800F027FD22460221062000F0C8FC8D
:10029C00062000F0FDFC22460221072000F0C0FCE5
:1002AC00072000F0F5FC22460221082000F0B8FCE3
:1002BC00082000F0EDFC22460221092000F0B0FCE1
:1002CC00092000F0E5FC08B010BD00BF0010024092
:1002DC00000021100008014008B50B480B4B0360CF
:1002EC000B4B436000238360C3604FF48042026178
:1002FC0043618361C361036200F09EFF00B908BDD6
:10030C0000F05AF8FBE700BF5804002000580040EA
:10031C00801A060010B586B0002302930393049351
:10032C0005930268114B9A4201D006B010BD104CD7
:10033C00A36943F00803A361A36903F008030093C6
:10034C00009B4FF440630293122303930323059302
:10035C0002A9084800F0BEFCE36943F48003E361A2
:10036C00E36903F480030193019BDEE7005800402E
:10037C0000100240000C014008B50138072808D8CD
:10038C00DFE800F01008070C07070704642000F0F2
:10039C00CFFA08BD652000F0CBFAFAE7662000F032
:1003AC00C7FAF6E7672000F0C3FAF2E708B500F0E9
:1003BC004FFA00F0C7FA08BD72B6FEE700B591B06F
:1003CC002822002106A801F057FE00230193029376
:1003DC00039304930593012206924FF48033079301
:1003EC000A9202220D920E934FF4E0130F9306A87B
:1003FC0001F0D2F880B90F2301930221029100235E
:10040C0003934FF480620492059301A801F0F6FA6D
:10041C0020B911B05DF804FBFFF7CEFFFFF7CCFF5E
:10042C0008B500F0B3FBFFF7C9FFFFF7FFFEFFF7BE
:10043C0053FF00F007FB054801F0DAFB142000F035
:10044C00C9FB00F089F900F0E3F9FEE7380F002052
:10045C0000B583B002460B464FF0FF310091782176
:10046C00024800F0C7FF03B05DF804FB58040020FD
:10047C0008B5034B587002211846FFF7E9FF08BD79
:10048C003009002008B54FF480620021014801F0CA
:10049C00F3FD08BDAC04002038B5104B40221A7097
:1004AC00002418E0A4F15000C0B2FFF7E1FF0020D7
:1004BC00FFF7DEFF1020FFF7DBFF084D8022084915
:1004CC0001EBC411681CFFF73BFE81212846FFF7A6
:1004DC00BFFF0134E4B2072CE4D938BDAC080020CE
:1004EC00AC04002008B5AE20FFF7C2FF2020FFF7B8
:1004FC00BFFF1020FFF7BCFFB020FFF7B9FFC820EB
:10050C00FFF7B6FF0020FFF7B3FF1020FFF7B0FF97
:10051C004020FFF7ADFF8120FFF7AAFFDF20FFF798
:10052C00A7FFA120FFF7A4FFA620FFF7A1FFA8209B
:10053C00FFF79EFF3F20FFF79BFFA420FFF798FFDC
:10054C00D320FFF795FF0020FFF792FFD520FFF790
:10055C008FFFF020FFF78CFFD920FFF789FF2220B7
:10056C00FFF786FFDA20FFF783FF1220FFF780FFEB
:10057C00DB20FFF77DFF2020FFF77AFF8D20FFF7B0
:10058C0077FF1420FFF774FFFFF77CFFFFF784FF62
:10059C00AF20FFF76DFF08BD10F0800F1CD13F2975
:1005AC001AD862B94FEAD10C01F0070101228A4036
:1005BC000A4B03EBCC13195C1143195470474FEAE7
:1005CC00D10C01F0070101228A40044B03EBCC1340
:1005DC00195C21EA02011954704700BFAC040020D9
:1005EC002DE9F04F85B005460C461E469DF8387037
:1005FC00904231D09046994241D0A2EB00090FFABB
:10060C0089F9A3EB010AB9F1000F49DD012301932C
:10061C00BAF1000F48DD012302932DB224B2B9F1D7
:10062C00000FB8BFC9F100091FFA89F303930FFA41
:10063C0089F9BAF1000FB8BFCAF1000A1FFA8AFB98
:10064C000FFA8AFAD14549DC4FF000089946CDF8EB
:10065C000CB0DDF808B047E099420BD92E4B19705D
:10066C0034460E4606E03A4621462846FFF794FFEC
:10067C000134E4B2A642F6D205B0BDE8F08F904248
:10068C000BD9254B18701546804606E03A46214694
:10069C002846FFF781FF0135EDB2A845F6D2EBE70E
:1006AC004FF0FF330193B3E74FF0FF330293B4E7FE
:1006BC0055442DB24545DFD03A46E1B2E8B2FFF7DA
:1006CC006BFF5E44B3B236B2B9EB460FF0DC029A64
:1006DC00144424B2039A9B1A1EB2E9E70026DDF8F3
:1006EC0004A0E7E75C4424B2B442C5D03A46E1B278
:1006FC00E8B2FFF751FFC8441FFA88F30FFA88F8E5
:10070C00BAEB480FEEDC019A15442DB2039A9B1AF2
:10071C000FFA83F8E6E700BF320900202DE9F04319
:10072C0083B00546884617461E469DF8289000243F
:10073C000CE004EB0801C9B2EA19CDF800900B46A5
:10074C00D2B22846FFF74CFF0134E4B2B442F0D3E6
:10075C0003B0BDE8F083000008B5FFF7C3FEFFF758
:10076C0091FE002118E00F4A02EB01120120D05437
:10077C000133DBB20F2B0DD80029F4D01F29F2D096
:10078C00002BF0D00F2BEED0064A02EB011200200A
:10079C00D054EDE70131C9B21F2901D80023E9E794
:1007AC0008BD00BF3409002010B501F0B7FC154B93
:1007BC0083FB00231A18C317C3EB2213C3EB0313D9
:1007CC00A0EB4303DCB20134E4B201F0A7FC0E4B06
:1007DC0083FB00231A18C317C3EBE203C3EBC30359
:1007EC00A0EB4303DBB20133DBB2084A02EB041289
:1007FC00D25C002AD9D1054A02EB04140322E2543C
:10080C0010BD00BF89888888932449923409002040
:10081C0008B50D4B03221A7067225A7000230EE0A4
:10082C00DA1CD2B2084901EB43018A700320C8706C
:10083C00064901EB02120221D1700133DBB2022B0B
:10084C00EED9FFF7B1FF08BD340B002034090020AE
:10085C0030B583B0334B5A88ADF804205B78643BD9
:10086C00032B08D8DFE803F0022B31379DF8053055
:10087C00013B8DF805309DF804509DF805402A4B3E
:10088C0003EB05131A5D531EDBB2012B47D9032A68
:10089C0027D0244B1A78013A03EB42035B88ADF85E
:1008AC0000309DF800109DF801201F4B03EB011345
:1008BC00002199541B4B1B78013BDBB221E09DF8C6
:1008CC00053001338DF80530D5E79DF80430013B38
:1008DC008DF80430CFE79DF8043001338DF80430E7
:1008EC00C9E7104A137801331370FFF75DFFE1E796
:1008FC00591E0C4A02EB430302EB410252885A8008
:10090C00CBB2002BF4D1074BBDF804205A80064B18
:10091C0003EB051502232B55044B00221A7003B070
:10092C0030BD00BF340B00203409002033090020F7
:10093C00024B5870024B01221A707047340B002086
:10094C003309002030B583B0002524E0A100A800B5
:10095C00012300930423032201F0FC0100F0FC00AE
:10096C00FFF7DCFE0134E4B20F2C12D80E4B03EB74
:10097C0005131B5D002BE9D0A100A80000230093F8
:10098C000423032201F0FC0100F0FC00FFF7C6FE7B
:10099C00E8E70135EDB21F2D01D80024E4E7FFF79D
:1009AC007BFD03B030BD00BF3409002082B00E4B7C
:1009BC009A6942F001029A619A6902F0010200926E
:1009CC00009ADA6942F08052DA61DB6903F08053F5
:1009DC000193019B054A536823F0E06343F00073D5
:1009EC00536002B0704700BF00100240000001408D
:1009FC00FEE7FEE7FEE7FEE7FEE77047704770474D
:100A0C0008B500F0D5F808BD08B5012000F074FA5F
:100A1C0008BD08B5022000F06FFA08BD08B5042027
:100A2C0000F06AFA08BD08B5082000F065FA08BDA8
:100A3C0008B5024801F014F908BD00BF380F0020BA
:100A4C007047000000B587B0002302930393049312
:100A5C000593009301931548154A026041F61F4215
:100A6C004260836041F28732C2600361836101F0AE
:100A7C00EFF990B94FF48053029302A90B4801F09F
:100A8C001FFA68B90023009301936946074801F0E7
:100A9C0097FA40B907B05DF804FBFFF78DFCE9E766
:100AAC00FFF78AFCEEE7FFF787FCF3E7380F00202F
:100ABC000008004002680E4B9A4200D0704700B507
:100ACC0083B003F50233DA6942F00402DA61DB69C0
:100ADC0003F004030193019B002201211E2000F06E
:100AEC009FF81E2000F0D4F803B05DF804FB00BFA3
:100AFC0000080040FFF7A4FF0B480C490C4A0023E8
:100B0C0002E0D458C4500433C4188C42F9D3094AB7
:100B1C00094C002301E013600432A242FBD301F024
:100B2C0087FAFFF77DFC7047000000203C04002092
:100B3C00942200083C040020880F0020FEE70000EF
:100B4C0010B504460E4B18784FF47A73B3FBF0F3E0
:100B5C000C4A1068B0FBF3F000F0A8F868B90F2C41
:100B6C0001D901200AE0002221464FF0FF3000F0AD
:100B7C0057F8054B1C60002000E0012010BD00BFA1
:100B8C0004000020000000200800002008B5074ADF
:100B9C00136843F010031360032000F02FF80020BB
:100BAC00FFF7CEFFFFF702FF002008BD0020024038
:100BBC00034A1168034B1B780B441360704700BF4A
:100BCC00800F002004000020014B1868704700BF04
:100BDC00800F002038B50446FFF7F6FF0546B4F148
:100BEC00FF3F02D0044B1B781C44FFF7EDFF401B6A
:100BFC00A042FAD338BD00BF04000020074AD368D6
:100C0C0023F4E0631B041B0C000200F4E0600343BC
:100C1C0043F0BF6343F40033D360704700ED00E052
:100C2C0000B5194BDB68C3F30223C3F1070CBCF10D
:100C3C00040F28BF4FF0040C03F1040EBEF1060F95
:100C4C0018D9033B4FF0FF3E0EFA0CFC21EA0C01C5
:100C5C0099400EFA03F322EA0303194300280BDB35
:100C6C000901C9B200F1604000F5614080F8001341
:100C7C005DF804FB0023E5E700F00F000901C9B2A1
:100C8C00024B1954F4E700BF00ED00E014ED00E056
:100C9C00002807DB00F01F02400901239340024AA1
:100CAC0042F82030704700BF00E100E00138B0F19D
:100CBC00807F0BD24FF0E0235861054AF02182F877
:100CCC0023100020986107221A6170470120704799
:100CDC0000ED00E070B582B00024A446A6E0804D83
:100CEC00AA4210D007D97F4DAA420CD005F5803509
:100CFC00AA4208D013E0A5F58015AA4203D005F549
:100D0C007025AA4207D18A68002A58D0012A51D0EE
:100D1C004361082403E0A5F58015AA42F3D0BEF187
:100D2C00FF0F4ED80646BEF1FF0F4CD84FEA8C028F
:100D3C0033680F25954023EA050304FA02F21343A6
:100D4C0033604B6813F0805F6ED0674B9A6942F04A
:100D5C0001029A619B6903F001030193019B4FEA25
:100D6C009C02951C614B53F825600CF003039D000D
:100D7C000F23AB4026EA03065D4B984229D003F5BE
:100D8C008063984200F08E8003F58063984200F0F7
:100D9C008B8003F58063984219D004231AE0CC6849
:100DAC00BDE7CC680434BAE7CC680834B7E7CC6844
:100DBC000C34B4E703610824B1E70024AFE7042442
:100DCC00ADE7061DAFE7ACF108029200B0E70323D4
:100DDC0000E00023AB4033430232444D45F822304F
:100DEC004B6813F4801F61D0424A936843EA0E03A8
:100DFC0093604B6813F4001F5ED03E4AD36843EAFD
:100E0C000E03D3604B6813F4003F5BD0394A536830
:100E1C0043EA0E0353604B6813F4803F58D0354AB5
:100E2C00136843EA0E0313600CF1010C0A6832FAE2
:100E3C000CF353D0012303FA0CF302EA030E33EA4A
:100E4C000202F1D14A68122A3FF649AF122A3FF644
:100E5C0066AF01A555F822F0130D0008AB0D000884
:100E6C00B50D0008C70D00082B0D00082B0D000850
:100E7C002B0D00082B0D00082B0D00082B0D000866
:100E8C002B0D00082B0D00082B0D00082B0D000856
:100E9C002B0D00082B0D00082B0D0008AF0D0008C2
:100EAC00BB0D0008012395E7022393E7114A9368D1
:100EBC0023EA0E0393609CE70E4AD36823EA0E03E1
:100ECC00D3609FE70B4A536823EA0E035360A2E7F3
:100EDC00084A136823EA0E031360A5E702B070BD3D
:100EEC0000002210000031100010024000000140F0
:100EFC00000801400004014008B5054B5B69034242
:100F0C0000D108BD024B5861FFF736FAF9E700BF74
:100F1C000004014003685A6912F4806F01D100206B
:100F2C0070476FF480625A6100230363202280F8BB
:100F3C003D2080F83E30026C42F00402026480F8DE
:100F4C003C30012070472DE9F04106460C4617460F
:100F5C0098463BE0FFF738FE069BC01A404502D886
:100F6C00B8F1000F32D1012D18D033689B6924EAF7
:100F7C0003039BB2B3FA83F35B099F4226D1002390
:100F8C003363202286F83D2086F83E30326C42F0E6
:100F9C002002326486F83C30012027E033685B691C
:100FAC0024EA03039BB2B3FA83F35B09E5E73368E6
:100FBC005B6924EA030C1FFA8CFCBCFA8CFC4FEA2C
:100FCC005C1C674511D1B8F1FF3FC3D1C4F3074591
:100FDC00012DECD033689B6924EA030C1FFA8CFCBE
:100FEC00BCFA8CFC4FEA5C1CEBE70020BDE8F081FE
:100FFC002DE9F84305460E469046994653E01A688B
:10100C0042F400721A602B686FF480625A610023FC
:10101C002B63202285F83D2085F83E302A6C42F067
:10102C0004022A6485F83C3001204AE0FFF7CCFD2D
:10103C00A0EB0900404502D8B8F1000F33D1012FC5
:10104C0017D02B689B6926EA03039BB2003B18BFA1
:10105C00012343B300232B63202285F83D2085F820
:10106C003E302A6C42F020022A6485F83C30012084
:10107C0027E02B685B6926EA03039BB2003B18BF91
:10108C000123E6E72B689C6926EA0404A4B2003C21
:10109C0018BF0124A4B12B685A6912F4806FAED129
:1010AC00B8F1FF3FC2D1C6F30747012FEAD12B6835
:1010BC005C6926EA0404A4B2003C18BF0124E9E7E9
:1010CC000020BDE8F8830000F0B583B004460D465F
:1010DC0016461F46C36A082B0DD0012B0BD013F5F7
:1010EC00803F08D0036B122B0AD10268136843F4BB
:1010FC008073136004E02268136843F480731360F8
:10110C000097334600224FF001112046FFF71BFFDA
:10111C0080B92369B3F5804F16D1236805F0FE051D
:10112C001D613B46324613492046FFF761FFF8B973
:10113C0003B0F0BD23681B6813F4807F02D04FF41A
:10114C00007323640320F3E7EB11226803F006031A
:10115C0043F0F00313613B46324607492046FFF744
:10116C0047FF18B92368EDB21D61DAE70120DFE70C
:10117C000120DDE7020001000800010070B5044603
:10118C000D46164623685B6913F0800F21D120466B
:10119C00FFF7C0FEF8B9B5F1FF3FF3D0FFF714FD30
:1011AC00801BA84201D8002DECD123685B6913F099
:1011BC00800FE7D100232363202284F83D2084F89C
:1011CC003E30226C42F02002226484F83C30012034
:1011DC0000E0002070BD0120FCE770B504460D4610
:1011EC00164623685B6913F0040F21D12046FFF7E4
:1011FC0091FEF8B9B5F1FF3FF3D0FFF7E5FC801B8A
:10120C00A84201D8002DECD123685B6913F0040FC0
:10121C00E7D100232363202284F83D2084F83E305C
:10122C00226C42F02002226484F83C30012000E061
:10123C00002070BD0120FCE7002800F0CC8070B5C8
:10124C00044690F83D30002B77D0242384F83D30B1
:10125C002268136823F0010313602268136843F4B7
:10126C00004313602268136823F40043136000F0FA
:10127C0081FC62685A4B9A4264D85A4B98428CBF94
:10128C0000230123002B40F0A8805749A1FB00311B
:10129C008B0C25686A6822F03F0242EA91426A6030
:1012AC0021680A6A22F03F0266684D4DAE424FD863
:1012BC00013313430B622168CA6922F44F4222F0B6
:1012CC00FF026668464B9E424CD8431E7600B3FB29
:1012DC00F6F3013340F6FC70034278D0C3F30B03F2
:1012EC001343CB6121680B6823F0C003E269206AC9
:1012FC00024313430B6021688B6823F4034323F0F0
:10130C00FF032269E068024313438B602168CB68BA
:10131C0023F0FF036269A06902431343CB60226888
:10132C00136843F00103136000202064202384F829
:10133C003D30206384F83E0070BD80F83C30FEF7F1
:10134C00E9FF82E7294B98428CBF0023012399E7E0
:10135C004FF4967505FB03F3254DA5FB03539B0931
:10136C000133A6E7A368BBB9451E06EB460CB5FBDB
:10137C00FCF50135C5F30B05B5FA85F56D0945BBD3
:10138C00C3B9013806EB4603B0FBF3F30133C3F3E7
:10139C000B0343F40043A3E7451E06EB860C0CEB52
:1013AC008C0CB5FBFCF50135C5F30B05B5FA85F5D1
:1013BC006D09E4E7013806EB860303EB8303B0FB0E
:1013CC00F3F30133C3F30B0343F4404388E70423E3
:1013DC0086E7012384E7012070470120ACE700BFBA
:1013EC00A08601007F841E0083DE1B43FF083D00A6
:1013FC00D34D62102DE9F04385B004460F4691465B
:10140C0098460C9EFFF7E0FB054694F83D00C0B2F1
:10141C00202804D00227384605B0BDE8F08300959B
:10142C00192301224F492046FFF78DFD002840F07B
:10143C00928094F83C30012B00F08F80012384F8CB
:10144C003C3023681A6812F0010F03D11A6842F07D
:10145C0001021A602268136823F4006313602123CD
:10146C0084F83D30102384F83E3000232364C4F804
:10147C002490A4F82A80638D23853B4BE3622B4692
:10148C00324639462046FFF71FFE0746002866D134
:10149C000023039323685A6903929B690393039B6C
:1014AC0011E0236C042B01D00127B4E722681368E8
:1014BC0043F400731360F7E72A4631462046FFF7E2
:1014CC008CFE00282ED1238D002B36D02A46314697
:1014DC002046FFF753FE0028E3D1626A2368127896
:1014EC001A61606A431C6362618D89B2013989B2E9
:1014FC006185238D013B9BB223852268516911F0D4
:10150C00040FD9D0002BD7D043781361636A013311
:10151C006362638D9BB2013B9BB26385238D013B60
:10152C002385C9E7236C042B01D0012773E72268BC
:10153C00136843F400731360F7E72268136843F4ED
:10154C0000731360202384F83D30002384F83E3070
:10155C0084F83C305FE702275DE702275BE7012751
:10156C0059E700BF020010000000FFFF82B0084BDB
:10157C001B68084AA2FB03235B0A00FB03F30193DD
:10158C0000BF019B5A1E0192002BF9D102B070478B
:10159C0000000020D34D6210002800F0F18170B5DE
:1015AC0082B00446036813F0010F2CD0994B5B6892
:1015BC0003F00C03042B1DD0964B5B6803F00C035B
:1015CC00082B12D06368B3F5803F41D0002B55D166
:1015DC0003F1804303F504331A6822F480321A6055
:1015EC001A6822F480221A6037E08A4B5B6813F485
:1015FC00803FE7D0874B1B6813F4003F03D0636830
:10160C00002B00F0BF81236813F0020F75D0814BC3
:10161C005B6813F00C0F5FD07E4B5B6803F00C0320
:10162C00082B54D02369002B00F08A807A4B0122BE
:10163C001A60FFF7C9FA0546764B1B6813F0020FC8
:10164C0075D1FFF7C1FA401B0228F5D903209EE1A2
:10165C00704A136843F480331360636843B3FFF735
:10166C00B3FA05466B4B1B6813F4003FCBD1FFF765
:10167C00ABFA401B6428F5D9032088E1B3F5A02F01
:10168C0009D0644B1A6822F480321A601A6822F46A
:10169C0080221A60E1E703F18043A3F53C331A681A
:1016AC0042F480221A601A6842F480321A60D4E73D
:1016BC00FFF78AFA0546574B1B6813F4003FA2D07C
:1016CC00FFF782FA401B6428F5D903205FE1514BE8
:1016DC005B6813F4803FA5D14E4B1B6813F0020FCF
:1016EC0003D02369012B40F04F814A4A136823F041
:1016FC00F803616943EAC1031360236813F0080F10
:10170C0033D0A369002B5CD0434B0122C3F8802457
:10171C00FFF75AFA05463F4B5B6A13F0020F21D1D3
:10172C00FFF752FA401B0228F5D903202FE1394A62
:10173C00136823F0F803616943EAC1031360DCE723
:10174C00354B00221A60FFF73FFA0546314B1B68F8
:10175C0013F0020FD1D0FFF737FA401B0228F5D94E
:10176C00032014E10120FFF701FF236813F0040F9D
:10177C0000F09680274BDB6913F0805F34D1254B4A
:10178C00DA6942F08052DA61DB6903F0805301932D
:10179C00019B0125214B1B6813F4807F26D0E36845
:1017AC00012B3DD0002B53D103F1804303F50433BF
:1017BC001A6A22F001021A621A6A22F004021A62F0
:1017CC0033E0154B0022C3F88024FFF7FDF90546E2
:1017DC00104B5B6A13F0020FC7D0FFF7F5F9401BF3
:1017EC000228F5D90320D2E00025D3E70B4A136871
:1017FC0043F480731360FFF7E7F90646074B1B6849
:10180C0013F4807FCBD1FFF7DFF9801B6428F5D967
:10181C000320BCE000100240000042420070004077
:10182C005F4A136A43F001031362E36833B3FFF7B3
:10183C00CBF906465A4B1B6A13F0020F2FD1FFF758
:10184C00C3F9801B41F288339842F3D903209EE000
:10185C00052B09D0524B1A6A22F001021A621A6A3D
:10186C0022F004021A62E0E74D4B1A6A42F00402BD
:10187C001A621A6A42F001021A62D6E7FFF7A4F95B
:10188C000646474B1B6A13F0020F08D0FFF79CF972
:10189C00801B41F288339842F3D9032077E0E5B9F5
:1018AC00E369002B72D03E4A526802F00C02082AFF
:1018BC0056D0022B17D03B4B00221A66FFF784F947
:1018CC000446374B1B6813F0007F47D0FFF77CF9B9
:1018DC00001B0228F5D9032059E0314AD36923F0C3
:1018EC008053D361DCE72F4B00221A66FFF76CF9AB
:1018FC0005462B4B1B6813F0007F06D0FFF764F9ED
:10190C00401B0228F5D9032041E0236AB3F5803F40
:10191C001AD023494B6823F47413226A606A024379
:10192C0013434B601F4B01221A66FFF74DF9044617
:10193C001B4B1B6813F0007F0ED1FFF745F9001B02
:10194C000228F5D9032022E0154A536823F400330A
:10195C00A1680B435360DCE7002018E0002016E080
:10196C00012B16D00E4B5B6803F48031226A914236
:10197C0011D103F47013626A93420ED1002006E079
:10198C0001207047012002E0012000E0002002B09D
:10199C0070BD0120FBE70120F9E70120F7E700BF4C
:1019AC0000100240000042420F4B5B6803F00C0237
:1019BC00082A01D00D487047C3F383420C49885C58
:1019CC0013F4803F0BD0084B5B68C3F34043094AC8
:1019DC00D35C064A02FB00F0B0FBF3F07047064BF9
:1019EC0003FB00F0704700BF0010024000127A00A9
:1019FC00702200088022000800093D00002800F039
:101A0C00A08070B50D460446524B1B6803F00703CB
:101A1C008B420BD24F4A136823F007030B4313601E
:101A2C00136803F007038B4240F08D80236813F09A
:101A3C00020F17D013F0040F04D0474A536843F435
:101A4C00E0635360236813F0080F04D0424A5368D4
:101A5C0043F460535360404A536823F0F003A16889
:101A6C000B435360236813F0010F31D06368012BD3
:101A7C0020D0022B25D0384A126812F0020F64D005
:101A8C0035494A6822F0030213434B60FFF79CF878
:101A9C000646314B5B6803F00C036268B3EB820FB4
:101AAC0016D0FFF791F8801B41F288339842F0D999
:101ABC00032045E0284A126812F4003FE0D10120CF
:101ACC003EE0254A126812F0007FD9D1012037E0A0
:101ADC00204B1B6803F00703AB420AD91D4A13685D
:101AEC0023F007032B431360136803F00703AB4287
:101AFC002DD1236813F0040F06D0174A536823F432
:101B0C00E063E1680B435360236813F0080F07D0C0
:101B1C00114A536823F46053216943EAC1035360AB
:101B2C00FFF742FF0C4B5B68C3F303130B4AD35C08
:101B3C00D8400B4B18600B4B1868FFF701F80020CE
:101B4C0070BD012070470120FAE70120F8E7012061
:101B5C00F6E700BF002002400010024058220008A7
:101B6C000000002008000020014B1868704700BFDF
:101B7C000000002008B5FFF7F7FF044B5B68C3F3C8
:101B8C000223034AD35CD84008BD00BF00100240BA
:101B9C006822000810B4036A046A24F00104046289
:101BAC00846924F0F00C4CEA021223F00A030B4374
:101BBC008261036210BC704710B4036A046A24F09B
:101BCC0010040462846924F4704C4CEA023223F051
:101BDC00A00343EA01138261036210BC704783685F
:101BEC0023F070030B4343F007038360704700003E
:101BFC0090F83D30DBB2012B27D1022380F83D3029
:101C0C000268D36843F00103D3600368114A93421E
:101C1C0010D0B3F1804F0DD0A2F59432934209D07D
:101C2C0002F58062934205D01A6842F001021A60F4
:101C3C00002070479A6802F00702062A07D01A683B
:101C4C0042F001021A60002070470120704700200A
:101C5C00704700BF002C01407047704770477047B9
:101C6C0010B5044603681A6912F0020F11D0DA6835
:101C7C0012F0020F0DD06FF002021A6101230377EC
:101C8C0003689B6913F0030F70D0FFF7E6FF002386
:101C9C00237723681A6912F0040F12D0DA6812F055
:101CAC00040F0ED06FF004021A610223237723680D
:101CBC009B6913F4407F5FD02046FFF7CEFF0023D3
:101CCC00237723681A6912F0080F12D0DA6812F021
:101CDC00080F0ED06FF008021A61042323772368D3
:101CEC00DB6913F0030F4ED02046FFF7B6FF00233D
:101CFC00237723681A6912F0100F12D0DA6812F0E9
:101D0C00100F0ED06FF010021A610823237723688E
:101D1C00DB6913F4407F3DD02046FFF79EFF002384
:101D2C00237723681A6912F0010F03D0DA6812F0D6
:101D3C00010F36D123681A6912F0800F03D0DA68CC
:101D4C0012F0800F34D123681A6912F0400F03D0BF
:101D5C00DA6812F0400F32D123681A6912F0200FA2
:101D6C0003D0DA6812F0200F30D110BDFFF774FFEA
:101D7C002046FFF773FF8AE72046FFF76DFF2046EA
:101D8C00FFF76CFF9BE72046FFF766FF2046FFF747
:101D9C0065FFACE72046FFF75FFF2046FFF75EFFCD
:101DAC00BDE76FF001021A612046FEF7FFFAC1E7AA
:101DBC006FF080021A61204600F039F9C3E76FF02A
:101DCC0040021A612046FFF74AFFC5E76FF0200278
:101DDC001A61204600F02AF9C7E7000003681B4A85
:101DEC0090420AD0B0F1804F07D0A2F594329042C5
:101DFC0003D002F58062904203D123F070034A684D
:101E0C001343124A90420AD0B0F1804F07D0A2F58A
:101E1C009432904203D002F58062904203D123F4B5
:101E2C004073CA68134323F080034A691343036069
:101E3C008B68C3620B688362044B984202D0012307
:101E4C00436170470B690363F9E700BF002C014045
:101E5C0040B310B5044690F83D30F3B1022384F83A
:101E6C003D30214651F8040BFFF7B8FF012384F8ED
:101E7C00463084F83E3084F83F3084F8403084F8A3
:101E8C00413084F8423084F8433084F8443084F88C
:101E9C00453084F83D30002010BD80F83C30FEF712
:101EAC0009FEDBE70120704710B4846824F47F4CF2
:101EBC0042EA03220A4342EA0C02826010BC7047D9
:101ECC0090F83C30012B78D010B50446012380F8F3
:101EDC003C30022380F83D300268936823F47F4342
:101EEC0023F0770393600B68602B4CD029D8402BE0
:101EFC0054D00CD9502B22D1CA6849680068FFF71E
:101F0C0049FE50212068FFF76AFE002005E0202BD7
:101F1C000DD009D9302B0AD00120012384F83D3093
:101F2C00002384F83C3010BD0BB1102B05D11946A1
:101F3C002068FFF754FE0020EFE70120EDE70120B9
:101F4C00EBE7B3F5805F34D0B3F5005F0CD1CB6811
:101F5C004A6889680068FFF7A7FF2268936843F412
:101F6C00804393600020D8E7702B24D1CB684A685B
:101F7C0089680068FFF798FF2268936843F077033D
:101F8C0093600020C9E7CA6849680068FFF714FE2F
:101F9C0060212068FFF723FE0020BEE7CA6849686D
:101FAC000068FFF7F7FD40212068FFF718FE0020BE
:101FBC00B3E70020B1E70120AFE702207047000033
:101FCC0090F83C30012B2CD010B4012380F83C301D
:101FDC00022380F83D3003685A689C6822F0700C2C
:101FEC000A6842EA0C025A6003680F4A93420AD00C
:101FFC00B3F1804F07D0A2F59432934203D002F58F
:10200C008062934204D124F080044A6814439C609B
:10201C00012380F83D30002380F83C30184610BC7A
:10202C0070470220704700BF002C0140704770477A
:10203C0070B50D4E0D4D761BB61006D0002455F81C
:10204C00043B01349847A642F9D1094E094D00F0E2
:10205C00F1F8761BB61006D0002455F8043B013479
:10206C009847A642F9D170BD882200088822000842
:10207C009022000888220008830730B548D0541EEF
:10208C00002A3FD00346CAB201E0013C3AD303F820
:10209C00012B9D07F9D1032C2DD9CDB245EA05258D
:1020AC000F2C45EA054536D9A4F1100222F00F0C8D
:1020BC0003F1200EE6444FEA121C03F1100242E930
:1020CC00045542E9025510327245F8D10CF1010267
:1020DC0014F00C0F03EB021204F00F0C13D0ACF144
:1020EC00040323F003030433134442F8045B9342C8
:1020FC00FBD10CF003042CB1CAB21C4403F8012B25
:10210C009C42FBD130BD64461346002CF4D1F9E758
:10211C0003461446BFE71A46A446E0E70A4B10B440
:10212C000A4A1C680A49D4E92A0300FB02F201FBA3
:10213C000322A0FB0101431C42EB0100C4E92A303D
:10214C0020F0004010BC70470C0000202DF45158BA
:10215C002D7F954C024B13B1024800F005B8704727
:10216C000000000081210008002301461A46184691
:10217C0000F01AB838B5084B084D5B1B9C1007D003
:10218C00043B1D44013C55F804399847002CF9D107
:10219C00BDE8384000F054B89422000890220008A2
:1021AC00704700BF704700BF2DE9F047DFF87CA0F7
:1021BC000646DAF8000098460F469146FFF7F0FF06
:1021CC001B4B1B68D3F8484124B365681F2D26DCD4
:1021DC005EB96B1C0235DAF80000636044F82570B8
:1021EC00FFF7E0FF0020BDE8F087012304EB850139
:1021FC00C1F88890D4F88821AB401A43022EC4F859
:10220C008821C1F80881E4D1D4F88C211343C4F897
:10221C008C31DEE703F5A674C3F84841D5E7DAF84C
:10222C000000FFF7BFFF4FF0FF30DCE73804002061
:10223C0084220008F8B500BFF8BC08BC9E46704765
:0C224C00F8B500BFF8BC08BC9E46704707
:10225800000000000000000001020304060708094E
:102268000000000001020304020304050607080930
:102278000A0B0C0D0E0F10100102000010000020B8
:0822880061210008310100088A
:042290000D01000834
:102294000024F400010000001000000010000020E1
:1022A40000000000FC02002064030020CC03002096
:1022B400000000000000000000000000000000001A
:1022C400000000000000000000000000000000000A
:1022D40000000000000000000000000000000000FA
:1022E40000000000000000000000000000000000EA
:1022F40000000000000000000000000000000000DA
:1023040000000000000000000000000000000000C9
:1023140000000000000000000000000000000000B9
:1023240000000000000000000000000000000000A9
:102334000000000000000000000000000000000099
:102344000000000000000000010000000000000088
:102354000E33CDAB34126DE6ECDE05000B0000004D
:102364000000000000000000000000000000000069
:102374000000000000000000000000000000000059
:102384000000000000000000000000000000000049
:102394000000000000000000000000000000000039
:0C26C4000000000000000000840F002057
:0400000508000B01E3
:00000001FF
